:020000021000EC
:10000000C8B70020552201009B7201004122010067
:100010004122010041220100412201004122010050
:10002000000000000000000000000000212401008A
:100030004122010000000000D923010041220100FB
:10004000C1250100C1250100C1250100C125010014
:10005000C1250100C1250100C1250100C125010004
:10006000C1250100C1250100C1250100C1250100F4
:10007000C1250100C1250100C1250100C1250100E4
:10008000C1250100C1250100C1250100C1250100D4
:10009000C1250100C1250100C1250100C1250100C4
:1000A000C1250100C1250100C1250100C1250100B4
:1000B000C1250100C1250100C1250100C1250100A4
:1000C000C1250100C1250100C1250100C125010094
:1000D000C1250100C1250100C1250100C125010084
:1000E000C1250100C1250100C1250100C125010074
:1000F000C1250100C1250100C1250100C125010064
:10010000C1250100C1250100C1250100C125010053
:10011000C1250100C1250100C1250100C125010043
:10012000C1250100C1250100C1250100C125010033
:10013000C1250100C1250100C1250100C125010023
:10014000C1250100C1250100C1250100C125010013
:04015000C1250100C4
:1001540053B94AB9002908BF00281CBF4FF0FF312A
:100164004FF0FF3000F00CB8ADF1080C6DE904CE8F
:1001740000F008F8DDF804E0DDE9022304B070477C
:10018400704700BF2DE9F04786468C460846089E16
:10019400154674461946002B40F0C1808542B2FAD8
:1001A40082F245D94AB1C2F1200300FA02FC95401B
:1001B40094402EFA03F343EA0C0C4FEA154EA8B20E
:1001C400230CBCFBFEF80EFB18CC08FB00F943EA39
:1001D4000C43994528D9EB1808F1FF3704D2994507
:1001E40002D9A8F102072B44A3EB0903A4B2B3FB81
:1001F400FEFC0EFB1C330CFB00F044EA0344A0425B
:1002040014D92C190CF1FF3304D2A04202D9ACF159
:1002140002032C44241A43EA07401EB1D4400023AD
:1002240034607360BDE8F0874746DDE76346F1E775
:1002340092BB431B01214FEA154EAFB2200CB3FB16
:10024400FEFC0EFB1C330CFB07F840EA0343984505
:1002540061D9EB180CF1FF3004D2984502D9ACF106
:1002640002002B44A3EB0803A4B2B3FBFEFC0EFB79
:100274001C330CFB07F744EA0344A7424DD92C195D
:100284000CF1FF3304D2A74202D9ACF102032C448F
:10029400E41B43EA0040C0E7C2F1200395409440C8
:1002A40020FA03F12EFA03F34FEA154E9040AFB251
:1002B4000343B1FBFEFC0EFB1C10190C0CFB07F8EE
:1002C40041EA0041884522D969180CF1FF3004D273
:1002D400884502D9ACF102002944A1EB08019BB284
:1002E400B1FBFEFC0EFB1C110CFB07F743EA0143B8
:1002F4009F420ED9EB180CF1FF3104D29F4202D970
:10030400ACF102012B44DB1B41EA004193E7604658
:10031400E3E76146F7E76046A4E76346B8E783424C
:1003240006D916B9002108467CE7C6E900E0F9E7DA
:10033400B3FA83F78FB9834201D3724508D8BEEB71
:10034400020460EB030301209C461EB9002169E707
:100354003846FAE7C6E9004CF8E7C7F1200CBB4081
:100364000EFA07F522FA0CF42EFA0CF1BA401C43EB
:1003740020FA0CF3B8404FEA144901431FFA84FEF3
:10038400B3FBF9F809FB18300B0C08FB0EFA43EA2F
:1003940000439A4540D9E31808F1FF3004D29A4546
:1003A40002D9A8F102002344A3EB0A0389B2B3FBE8
:1003B400F9F809FB183308FB0EFE41EA03418E45A8
:1003C4002CD9611808F1FF3304D28E4502D9A8F163
:1003D4000203214443EA0040A1EB0E01A0FB029872
:1003E4004145CE46434602D306D14D4504D2013899
:1003F400B9EB020E68EB0403002EA7D0B5EB0E0296
:1004040061EB030101FA0CFC22FA07F3F9404CEA10
:100414000303C6E9003199E74046C5E74346D9E7F7
:10042400034613F8012B002AFBD1181A0138704730
:100434002DE9F04FB3B04C4806F04BFB002000F020
:1004440043FB4A4806F045FB4FF416724FF48061B3
:10045400474806F03EFB80234FF496724FF4007138
:10046400444806F036FB444806F033FB4FF0000ADC
:100474004FF496794FF400784FF0010BCDF804B0A7
:1004840036E14B46424651463C4806F022FB3BE1EE
:10049400A8F102080FFA88F850E1A9F108090FFA47
:1004A40089F953E104EB84039B000A33344D05EAD4
:1004B4008345344E45F0804141F4C871306800F002
:1004C400D9FA31492943306800F0D4FA0134A4B28E
:1004D400322CE7D9002517E005EB8504A40032345B
:1004E400E400C4F30E04274E44F0804141F420118B
:1004F400306800F0BFFA44F09F4141F49001306845
:1005040000F0B8FA0135ADB21B2DE5D91D4E4FF000
:100514000451306800F0AEFA02AC1C4D0FCD0FC48C
:100524000FCD0FC495E8070003C424F8022B120C66
:1005340022701749306806F03CF894230DAA00F69F
:100544001801306806F0C9F81249306800F092FAD0
:100554001149306800F08EFA1049306800F08AFAC8
:1005640000240A263CE000BFE8950100049601003F
:1005740028960100449601006496010080960100CB
:100584000080FF3FE883002070120040A89601001D
:10059400FCFF2F00A96000040100001F1E000005DD
:1005A40004F1C8036B4413F8C05C05F07F01794F74
:1005B40041F0C061386800F05DFA774901EA86418C
:1005C40041F0804141F02801386800F053FA05F108
:1005D400C8030DEB030515F8943C1E440134E4B242
:1005E400292CDDD96B4C4FF00451206800F042FAFD
:1005F4006A49206800F03EFA6949206800F03AFA36
:10060400684E3146206800F035FA6FF07B4120686F
:1006140000F030FA6449206800F02CFA634920683D
:1006240000F028FA08F1FF315B4D05EA814109F138
:10063400FF33DB00C3F30E03194341F0804120680C
:1006440000F018FA4FF08061206800F013FA58495E
:10065400206800F00FFA08F1080105EA814109F168
:100664000803DB00C3F30E03194341F08041206803
:1006740000F000FA4F49206800F0FCF94E49206868
:1006840000F0F8F905EA88454FEAC903C3F30E03FD
:100694001D4345F080452946206800F0EBF96FF0D2
:1006A4007B41206800F0E6F94449206800F0E2F953
:1006B4003146206800F0DEF92946206800F0DAF9B6
:1006C4004FF00451206800F0D5F94FF00451206830
:1006D40000F0D0F90021206800F0CCF9206800F087
:1006E400E3F90221206800F03DF90A2005F021FE1B
:1006F4000AF1010A324BA3FB0A235B09642202FBC1
:1007040013A3002B3FF4BDAEB8F55C7F02DAB8F159
:100714008C0F03DC019B83F001030193B9F5E37FA4
:1007240002DAB9F1BA0F01DC8BF0010B019B002B4B
:100734003FF4AEAE08F102080FFA88F8BBF1000FDF
:100744003FF4ABAE09F108090FFA89F9114C1D49C0
:10075400206800F08FF9206806F084F86FF07D417E
:10076400206800F087F91849206800F083F91749D8
:10077400206800F07FF94FF08061206800F07AF97A
:100784001349206800F076F91249206800F072F9E4
:1007940000249DE6E88300200080FF3F0F00002036
:1007A400FF01070A0900000C0008000D0200001FE9
:1007B400A0000010FF00001000ACFE040101040AB8
:1007C4001F85EB5103000027070000261B00000CC7
:1007D4000800000E0300001F10B5A8B0184806F06A
:1007E40078F9184C184B1C60184806F072F920462A
:1007F40000F01EFB164806F06CF9164806F069F97D
:10080400204600F0C7F9144806F063F9134806F0CF
:1008140060F900220023CDE9062300230493072274
:1008240003920293019300930D4B4FF480520D49B0
:1008340008A808F065FB4FF47A7005F07AFDFAE732
:10084400D4960100EC830020E8830020F096010098
:100854000C97010024970100389701004897010084
:10086400350401008896002008B50948094B186032
:1008740008F0C9FA08B9002008BD0748074B1860FA
:1008840008F0C1FA08B10120F6E70020F4E700BF40
:1008940094930100248400204493010020840020C8
:1008A400034B044A1A604FF480729A800120704707
:1008B4000C840020002D310110B58CB08DF8071088
:1008C4000DF10703099301230A930DF12F020792F7
:1008D400089309AA0592069307AA03920493064B68
:1008E400186883681C6803AB05AA0449A0479DF8EF
:1008F4002F000CB010BD00BF248400200C84002005
:1009040010B584B014460291039202AB0093012304
:1009140001936A460349044B186805F065FD2046B7
:1009240004B010BD0C8400202484002010B50C46B3
:10093400054806F0CEF8054B18684FF400322146FE
:1009440005F00DFD012010BD6497010020840020F6
:1009540008B5034B186805F03AFD012008BD00BF37
:100964002084002038B505460A46012900D0022219
:100974000849284605F02DFE022402E0012005F076
:100984006FFE34B10349284605F0F3FD0446002800
:10099400F4D138BD54203000022914D870B506466D
:1009A4000D461446022A11D89AB1022A08D00A46E2
:1009B4000949304605F00DFE35767476002070BD89
:1009C40041F00402F4E74FF0FF3070474FF0FF307E
:1009D400F5E74FF0FF30F2E78821300008B50289CF
:1009E4000A44C2F30B020281033222F0030212050D
:1009F400120D0281014905F0FBFD08BDFC20300009
:100A040010B50489054905F0C4FD201AC0F30B0094
:100A1400C0F57F600C3080B210BD00BFF8203000FC
:100A240038B505460849284605F0B3FD044607498C
:100A3400284605F0AEFD8442F4D10449284605F069
:100A4400A8FD288138BD00BFF8203000FC2030000C
:100A540010B504460C23054A4FF4401105F027FE57
:100A640002220349204605F0B4FD10BD7897010029
:100A74005420300010B50C46094B1A68B2F5805F5B
:100A840003D34AB9064B00221A60054A1368054984
:100A9400CC500433136010BD024905F06AFEF1E73F
:100AA400309400202C84002008B5054B1A681AB92C
:100AB400034B00221A6008BD024905F02EFEF7E739
:100AC400309400202C840020014B1860704700BF34
:100AD4002C940020024B1B6803FB00F000137047AA
:100AE4002884002070B506460C460968C1F3150138
:100AF40041F08071FFF7BEFFA388124901EA032188
:100B0400E388C3F30803194341F0E2613046FFF779
:100B1400B1FFB4F90400FFF7DDFF001101300A4D05
:100B240005EA4025B4F90600FFF7D4FF03110133A9
:100B3400C3F3080345EA030141F001613046FFF7BE
:100B440099FF70BD00FE070000FE030070B5064665
:100B54000D461446FFF7C6FFB5F90800FFF7BAFFC4
:100B640002190A4C04EAC234B5F90A00FFF7B2FFCD
:100B7400074BB3F900300344C3F30E0344EA030103
:100B840041F080413046FFF775FF70BD0080FF3FA4
:100B9400789600202DE9F8430646914805F099FF20
:100BA400904B914A1A60F220FFF794FFC0F5165952
:100BB40009EBD97949F34F098C4BA3F800904FF412
:100BC400486303FB09F98A4805F083FF6FF0DD01F0
:100BD400304605F0F7FD0021304605F0F3FD41F6FF
:100BE40050028449304605F098FD3046FFF75CFF1B
:100BF4003046FFF715FF804805F06BFF4FF0000803
:100C04004746A4E041467D4805F063FFAEE0A7F502
:100C1400CC50193800EB4000794C04FB05046FF00C
:100C24008100FFF757FF01460022204605F020FE11
:100C3400024605EB4501734B03EB81013046FFF798
:100C440085FF0135092D06DC092DE0D16E493046BA
:100C5400FFF710FFDBE76D493046FFF70BFF4FF05E
:100C640008513046FFF706FF694D29463046FFF725
:100C740039FF4FF001613046FFF7FCFE304605F0C6
:100C8400B7FD584B19680A46304605F0D4FD09F5FE
:100C9400D6024FF43E01304605F0B0FDA7F5CC5026
:100CA400193800224FF48041400005F0E1FD414233
:100CB400304605F0B4FD574A0021304605F09EFD4C
:100CC400304605F0C9FD4FF080413046FFF7D2FEB3
:100CD4004FF00C513046FFF7CDFEA7F5CC44663CEF
:100CE400D220FFF7F7FE0146002204EB440005F092
:100CF400BFFD024605F10C013046FFF727FF4649C8
:100D04003046FFF7B7FEA7F54040FF2200218000E0
:100D140005F0AEFDC1B241F080513046FFF7AAFEA6
:100D2400002205F118013046FFF710FF002130467C
:100D3400FFF7A0FE3046FFF7B7FE3046FFF770FE20
:100D440008F101081FFA88F807F22627BFB2B8F1A4
:100D5400770F31D8314BA3FB08231B09C3EB0313D3
:100D6400A8EB43039BB2002B3FF44CAF304605F095
:100D740079FD6FF07D413046FFF77CFE284930460F
:100D8400FFF778FE27493046FFF774FE26493046C0
:100D9400FFF770FE304605F02BFD124B19680A462A
:100DA400304605F048FD304605F056FD1A493046F8
:100DB400FFF760FE002545E71C4805F08AFE304633
:100DC40005F050FD3046FFF743FE3046FFF76CFE5A
:100DD4003046FFF725FE142005F042FCBDE8F883F9
:100DE4008497010028840020AE47010078960020F3
:100DF400A0970100349A0100C0970100E097010018
:100E040067E6FFFF98990100241CED04C1713804C2
:100E1400109A01000000C4FF201F230489888888D9
:100E2400070000260F0000050100001FF4970100D1
:100E340030B583B00446854805F04BFE01A805F0A3
:100E4400F3FA204605F0F5FA814805F042FE012147
:100E5400204605F009FC012200212046FFF79CFDF5
:100E64007C4805F036FE4821204605F0DFFB64206F
:100E740005F0F6FB0021204605F0D8FB4FF49670F0
:100E840005F0EEFB744805F024FE744A74492046CC
:100E940005F0BDFB19227349204605F09AFB7249FF
:100EA400204605F066FB05460146704805F011FE34
:100EB4000BE06D49204605F05CFB054601466C4895
:100EC40005F007FE642005F0CBFB7C2DF1D16949C8
:100ED400204605F04EFB05460146674805F0F9FD3E
:100EE4000BE06449204605F044FB0546014663488F
:100EF40005F0EFFD642005F0B3FB002DF1D160484F
:100F040005F0E7FD5F4805F0E4FD4FF416724FF479
:100F140080615D4805F0DDFD40F27B224FF4A8615D
:100F24005A4805F0D6FD1722A021594805F0D1FDF5
:100F340001221146574805F0CCFD0021564805F022
:100F4400C8FD4FF47A625549204605F051FB8022D2
:100F54005349204605F03DFB83225249204605F0C3
:100F640038FB40F612525049204605F041FB00225E
:100F74004E49204605F02DFB4FF4A8624C4920460B
:100F840005F036FBA0224B49204605F031FB002238
:100F94004949204605F02CFB46224849204605F0E5
:100FA40027FB40F27B224649204605F021FB17220D
:100FB4004449204605F01CFB00224349204605F025
:100FC40017FB0A224149204605F012FB0022404942
:100FD400204605F0FEFA01223E49204605F0F9FAC2
:100FE4004FF480623C49204605F002FB4FF4167230
:100FF4003A49204605F0FCFA00223949204605F01A
:10100400F7FA00223749204605F0F2FA364805F08F
:1010140060FD204605F026FC4FF000712046FFF7E6
:1010240029FD32492046FFF725FD00212046FFF720
:1010340021FD2046FFF738FD2046FFF7F1FC012291
:101044002B49204605F0C5FA03B030BD08980100CD
:1010540028980100409801005898010000A24A0411
:101064000C203000802130000020300070980100F6
:101074008498010020203000A4980100BC9801004D
:10108400DC980100F49801000C99010024990100F6
:101094003C9901005899010070990100D02030005A
:1010A400D42030009420300014263000182630005C
:1010B4002C20300030203000382030003C2030001C
:1010C40040203000442030004C20300050203000BC
:1010D400642030006C203000342030004820300080
:1010E400682030006020300080990100070000264D
:1010F4007020300008B5024B1B68984708BD00BF3C
:1011040000800020014B1860704700BF0080002061
:1011140000B583B002460B4600210091024800F05E
:10112400D1FA03B05DF804FBF910010084460268AB
:10113400002006E000EB8000013203EB4003A3F142
:10114400300013780349C95C11F0040FF2D1CCF8D4
:1011540000207047B5B5010084460846012226E008
:101164009CF8003043F004038CF80030F2B10130F5
:101174001CE09CF8003043F008038CF80030F5E7DD
:101184009CF8003043F010038CF80030EEE79CF834
:10119400003043F020038CF80030E7E79CF800307F
:1011A40043F040038CF80030E0E7002242B30378B8
:1011B400203B102BF9D801A151F823F0851101002F
:1011C400AF110100AF11010093110100AF11010033
:1011D400AF110100AF110100AF110100AF11010007
:1011E400AF110100AF11010077110100AF1101002F
:1011F40065110100AF110100AF110100A11101003F
:101204009CF8003003F04403442B00D070479CF852
:1012140000306FF386138CF80030F7E72DE9F84FB0
:1012240005460C46934699460A9ED078254B13F8FA
:1012340000A00AF0030A05F051FE074614E0BAF1D3
:10124400010F20D0D2B25732D2B232703A4643465E
:1012540028462146FEF77CFFBD4274F1000416D3F4
:101264004E4514D905460C464FF000083A4643460D
:1012740028462146FEF76CFF013E092ADFD8D2B288
:101284003032D2B2E1E7D2B23732D2B2DDE79BF8E4
:10129400003013F0200F03D0082F04D0102F09D0F2
:1012A4003046BDE8F88F9BF8023043F008038BF812
:1012B4000230F5E79BF8023043F010038BF802305C
:1012C400EEE700BFB5B501002DE9F04F87B0174632
:1012D4001E46DDF8449002460B1E07DB397811F0F8
:1012E400080F14D02B211098017002E02D211098C2
:1012F400017097F80380C3F30A54C3F313030492F1
:1013040005935CB952EA030126D1002107E011F0EC
:10131400100FEED0202110980170EAE7002140F26E
:10132400FF7084421AD0B8F1460F5BD0DB0243EA67
:101334005253D20204920593104623F000430593BE
:10134400224343EAE4752A435ED0002956D00018AC
:101354005B41049005934DE00121E0E7134324D160
:101364009F4B13F8083003F00303012B11D06923BA
:1013740089F800306E2389F80130662389F8023039
:1013840009F103023B786FF386133B70129B1A60DA
:1013940081E1492389F800304E2389F8013046233E
:1013A40089F8023009F10302ECE78D4B13F8083099
:1013B40003F00303012B0AD06E2389F80030612265
:1013C40089F8012089F8023009F10302DAE74E2393
:1013D40089F80030412289F8012089F8023009F1A6
:1013E4000302CFE74FF06608A0E7013CDB18524147
:1013F40004930592049B059A002AF6DAA4F2FE34BB
:10140400059B43F000430593002517E0059B049AD0
:10141400520842EAC3725B080492059321460134E0
:10142400B3F1333FF2D29C0044EA927490008018E6
:1014340043EB0403049005938C1C013D14F1020F4B
:10144400E4DB14E0049B0233059A42F100020493A6
:10145400059204A805F0FCFC013C01350499059BA8
:1014640049185B4104910593013C002BF6DA002CEA
:10147400E8DCC4F10401059A1C34A1F12000049BAA
:10148400CB4002FA04F4234322FA00F00343CA4097
:1014940004930592B8F1670F13D0B8F1470F10D039
:1014A4004FF0000BB8F1660F29D0741C102303937E
:1014B4009C4200DD1C4600224FF00063CDE900236E
:1014C40027E015F1030F01DBB54211DDA8F1020895
:1014D4005FFA88F8002E00DD013E3B78C3F3401B21
:1014E40013F0200F08D1002EDCDD4FF0010BD9E7FB
:1014F400761B4FF06608F0E74FF0000BD2E7AC190B
:10150400D4D5102303930024D5E7684605F0BCFC2A
:10151400544604F1FF3A002CF7D1049B009A9B181F
:10152400059A019942EB0102049305924FF0FF31B1
:1015340099426FF07043934106D3B8F1660F38D1E6
:10154400002D31DDCA460BE004A805F09DFC0135F1
:10155400F3E703A904A805F0A3FC0AF8010B013D75
:10156400002D02DD039B002BF3DC7D6025463B78D8
:1015740013F0200F01D1002E02DD2E230AF8013BC7
:10158400002D36DA002E34DD6B427B609E4200DA99
:101594007E607B68F61A002BD4BF00230123BA783F
:1015A40063F34512BA7024E0CA4630230AF8013BBB
:1015B400DDE703A904A805F073FCCA460AF8010B89
:1015C400302800D0013D3B7813F0200F01D1002ECC
:1015D4000FDD2E2389F8013009F1020A09E000BF6A
:1015E400B5B5010003A904A805F05AFC0AF8010BDB
:1015F400013E002E02DD039B002BF3DCBE60BBF139
:10160400000F09D00023BB6053469A4613F8012DFE
:10161400302AFAD02E2A42D0B8F1650F02D0B8F1A0
:10162400450F2AD18AF80080002D3ADB2B238AF853
:1016340001300AF1020A632D0CDD204A82FB0532D7
:10164400EB17C3EB621303F130020AF8012B642297
:1016540002FB13551A4A82FB0532EB17C3EBA203B4
:1016640003F130028AF8002003EB8303A5EB430364
:1016740030338AF801300AF1020A7B68002B17DD47
:101684000124BB7864F38613BB70129BC3F800A0DB
:1016940000238AF80030484607B0BDE8F08F9A4628
:1016A400BAE76D422D238AF801300AF1020AC2E733
:1016B400BB68002BE5DD0124E3E700BF1F85EB5188
:1016C400676666662DE9F04F97B006460D4690466C
:1016D4000593002498F80000002800F0488325288A
:1016E40008D02946B0470028C0F24283013408F1EB
:1016F4000108EFE70023089309930A930B930C93D3
:101704000D930DF1550207928DF81B3041460AA83E
:1017140005F07CFB81469DF8293013F0010F00F0A1
:101724009E80059B1A1D05921F68002FC0F28F80B2
:101734009DF8293013F0040F00F0A380059B1A1DB7
:101744000592D3F800A0BAF1000FC0F291800023F3
:101754000B930C939DF82A3003F00703042B00F03D
:1017640099809DF82A3003F007039DF82910C1F3EE
:10177400C301012B00F09E80022B00F0E380042BB8
:1017840000F03481032B00F04B819DF8282012F0E7
:10179400030F40F04B819DF82B30253B532B00F277
:1017A400FD81DFE813F04F01FB01FB01FB01FB01AD
:1017B400FB01FB01FB01FB01FB01FB01FB01FB0145
:1017C400FB01FB01FB01FB01FB01FB01FB01FB0135
:1017D400FB01FB01FB01FB01FB01FB01FB01FD0123
:1017E400FB01FB01FB01FD01FD01FD01FB01FB010F
:1017F400FB01FB01FB01FB01FB01FB01FB01FB0105
:10180400FB01FB01FB01FB01FB01FB01CA01FB0125
:10181400FB01FB01FB01FB01FB01FB01FB01FD01E2
:10182400FB01B501BE01FD01FD01FD01FB01BE018E
:10183400FB01FB01FB01FB01F601CA019C01FB0159
:10184400FB015701FB01CA01FB01FB01CA019DF821
:10185400283043F004038DF828307F4268E79DF96F
:101864002830002B02DB4FF0FF3761E70B9F5FE767
:101874009DF829306FF341038DF829304FF0FF3A7A
:1018840065E713F0020F02D0DDF830A05FE74FF0F8
:10189400FF3A5CE79DF8293013F0020F7FF461AF43
:1018A4009DF92930002B02DB4FF0060A59E74FF06F
:1018B4000D0A56E7CB1E042B04D8DFE803F00B1DFA
:1018C40029353500059B1A1D05921B68DA17089304
:1018D400099206E0059B1A1D05921B68DA17089306
:1018E4000992012928D002297FF44FAFBDF9203095
:1018F400DA170893099248E7059B073323F0070397
:1019040003F108020592D3E90023CDE90823E8E7AF
:10191400059B073323F0070303F108020592D3E97B
:101924000023CDE90823DCE7059B1A1D05921B68FB
:10193400DA1708930992D4E79DF92030DA1708934F
:10194400099222E7CB1E042B04D8DFE803F00B1F17
:1019540035414100059B1A1D05921B68089300231D
:1019640009931EE09DF82B30632B07D0059B1A1DAD
:1019740005921B6808930023099312E0059B1A1D26
:1019840005921B680893002309930AE0059B07331B
:1019940023F0070303F108020592D3E90023CDE9FC
:1019A400082301291CD002297FF4EFAEBDF82030B2
:1019B400089300230993E8E6059B073323F0070304
:1019C40003F108020592D3E90023CDE90823E8E7EF
:1019D400059B1A1D05921B68089300230993E0E7F1
:1019E4009DF82030089300230993CEE608290BD0F4
:1019F400059B073323F0070303F108020592D3E99B
:101A04000023CDE90823C0E6059B073323F0070331
:101A140003F108020592D3E90023CDE90823B4E6D3
:101A2400059B1A1D05921B680893AEE64B46424679
:101A34002946304605F086FA0028C0F2998104440C
:101A4400C84647E629462520B0470028C0F29081C1
:101A54000134A3E0DDF82080BAF1000F3ADA404601
:101A6400FEF7DEFC40440790B8F1000F00F09680CA
:101A7400079BA3EB08039DF81B0000B101339DF8FD
:101A84002A1011F0100F00F09A8002330B9A1344BD
:101A940011F0400F01D00C9A1344002F40F3A7809B
:101AA400FF1A9DF8283013F0040F40F0A08013F0C3
:101AB400400F00F09580002800F095802946B0473B
:101AC4000028C0F25581013400238DF81B304FF0FB
:101AD400300A8AE05146404607F0DCFBC2E708982A
:101AE40020B9A54B0793A3F10508C1E7079B009311
:101AF4000FAB0AAA0021FFF791FB80469DF82A301C
:101B040043F010038DF82A3078238DF82B301DE034
:101B1400089B8DF83C300DF13D0307930DF13C0813
:101B2400A6E712F0080F24D02B238DF81B30089A57
:101B3400099B002B24DB08920993079B00930FABAE
:101B44000AAADDE90801FFF769FB8046BAF1000F34
:101B54008ADB079BA3EB08039DF828206FF386120A
:101B64008DF828209A457FF67FAFAAEB03030B93E9
:101B74007AE712F0100FDAD020238DF81B30D6E765
:101B84002D218DF81B10524263EB430308920993F5
:101B9400D3E7224608990AA805F0B5F9C84699E59D
:101BA40007AB02930FAB01930DF11B030093534654
:101BB4000AAADDE90801FFF787FB804654E711F024
:101BC400080F3FF463AF013360E701343B465F1E07
:101BD400002B0CDD29465046B0470028F5DAC7E053
:101BE4004FF0200A01E04FF0300A3B46EFE79DF842
:101BF4001B0028B12946B0470028C0F2B98001343F
:101C04009DF82A3013F0400F74D09DF92930002B31
:101C14000FDB98F80000594B1B5C13F0040F15D030
:101C24002946B0470028C0F2A380013408F1010816
:101C3400EFE798F80000702845D02946B0470028FF
:101C4400C0F29680013408F10108F2E7DDF82CA017
:101C54009DF82A3013F0200F12D098F800002E2897
:101C64001DD098F80000454B1B5C13F0040F2AD0DC
:101C74002946B04700287BDB013408F10108F0E76E
:101C84000AF1FF3BBAF1000F07DD29463020B047C7
:101C940000286DDB0134DA46F2E7DA46DDE729464F
:101CA400B047002864DB013408F101080AF1FF3B66
:101CB400BAF1000FD5DD29463020B047002857DBA4
:101CC4000134DA46F2E70C9B03F1FF3A002B07DDFF
:101CD40029463020B04700284ADB01345346F3E755
:101CE400079B42462946304605F02CF900283FDB85
:101CF400044432E09DF82A30C3F30012C3F3C00356
:101D04001A4305D029463020B047002830DB01347F
:101D14009DF82A3013F0100F06D029469DF82B00A9
:101D2400B047002824DB01340B9B03F1FF3A002B5E
:101D340007DD29463020B047002819DB013453461B
:101D4400F3E7079B42462946304605F0FBF8002896
:101D54000EDB044401E00134013F002F05DD294678
:101D64002020B0470028F6DA02E0C846B2E4204654
:101D740017B0BDE8F08F00BF89B20100B5B501000E
:101D84002DE9F04383B0044608461546238B13F02F
:101D9400080F05D103F0070600230093019354E0D4
:101DA400012909D043F02003238385F31188BFF36D
:101DB4006F8F03B0BDE8F08343F010032383F4E78F
:101DC400204605F001F942E0D4F814904A466946E9
:101DD400204605F012F94FF00008238B03F00707A3
:101DE400B74269D0A268002A66D0012243F00803F2
:101DF400238385F31188BFF36F8F002A64D1009B7E
:101E04002BB14B463A466946204605F06FF9B8F1C6
:101E1400000F02D034492046C047EFF31185202338
:101E240083F31288BFF36F8F238B23F0080323837C
:101E3400238B13F0100F4DD023F0100323830120C4
:101E4400268B06F007060028AFD00228B8D0002859
:101E5400ABD0013804282BD801A353F820F000BFDD
:101E6400CD1D0100B51E0100791E01008D1E01006B
:101E7400A11E01002369D3F800800621204605F045
:101E840079F84FF00009A8E72369D3F80480042106
:101E9400204605F06FF84FF000099EE72369D3F858
:101EA40008800521204605F065F84FF0000994E705
:101EB4004FF00008C14690E7009A0AB1002295E766
:101EC400B8F1000F92D1B3E74A463946204605F0EF
:101ED40059F894E713F0200F04D023F02003238350
:101EE4000220ADE70020ABE71F710100014B036046
:101EF400002070478CB2010008B5034804F0E9FDE6
:101F0400024804F0E6FD08BD8CB20100C4B2010031
:101F140030BFFFF7FDBF00BF074B9B6893F90E204E
:101F2400002A08DB044A5269934204D0034A5368E6
:101F340043F08053536070474496002000ED00E066
:101F440038B51446264B9B6A13F0100F1AD110258E
:101F5400234B9B6A13F0080F00D01225204B9B6A79
:101F640013F0020F11D01E4B5A6B9B6A13F0800FB3
:101F74000AD0002930D01A4A936A23F0800393626E
:101F8400132502E01125E3E71325154B9B6A13F093
:101F9400010F00D01425124B9B6A13F0200F1DD1A2
:101FA4000F4B9B6A13F0100F01D10D4B9B6A0C4B26
:101FB4009B6A13F0200F04D0094A536A23F4005398
:101FC4005362074A936A43F0FF039362012105F0C9
:101FD40068F92070284638BD1325D6E71525DFE7B4
:101FE40000ED00E038B51546204B9B6A13F4805F82
:101FF40019D116241D4B9B6A13F4006F00D01824CA
:102004001A4B9B6A13F4007F10D0184B9A6B9B6A8F
:1020140013F4004F09D0D9B1144A936A23F400434E
:102024009362192402E01724E4E719240F4B9B6AF6
:1020340013F4806F00D01A240C4B9B6A13F4807F36
:1020440008D10A4B9B6A13F4005F04D01C2402E0FD
:102054001924EBE71B24054A936A43F47F439362F4
:10206400012105F01EF92870204638BD00ED00E07E
:102074001A4B9B6A13F0007F2BD11D20174B9B6AD0
:1020840013F0807F00D01F20144B9B6A13F4801F31
:1020940000D00220114B9B6A13F4002F00D02120A2
:1020A4000E4B9B6A13F4802F00D022200B4B9B6AAB
:1020B40013F4003F00D02320084B9B6A13F4803FA5
:1020C40009D1064A936A6FEA03436FEA13439362A2
:1020D40070471E20D2E72420F3E700BF00ED00E0A4
:1020E40081690D4B5A6942F480725A61BFF34F8F74
:1020F400BFF36F8F31F8021C5A6922F480725A615F
:10210400BFF34F8FBFF36F8F4DF60273994201D027
:10211400002070470120704700ED00E038B5054607
:1021240000230B701A4BD86A10F002002DD10C4614
:10213400DB6A002B2ADB164BD86A10F0804025D0CE
:102144002846FFF7CDFF08B128681FE0104B9B6AB3
:1021540013F0FF0F0DD10E4B986A10F47F400ED18F
:102164000B4B9B6AB3F5803F10D32846FFF780FFE3
:102174000CE0224601212846FFF7E2FE06E0224653
:1021840001212846FFF72EFF00E0002038BD00BFE4
:1021940000ED00E030B58BB01F4B5D68C5F308055A
:1021A400002383F31188BFF36F8F0DF1260305F02D
:1021B400A0F804460DF12702294605F077F89DF8AA
:1021C40027300BB10BB030BD05460DF1040C20686F
:1021D4006168A268E368ACE80F0020696169A269DC
:1021E400E369ACE80F009DF826304BB1089BC3F3BC
:1021F40008025AB96FEA53236FEA4323089305E0B0
:10220400089B23F4FF7323F00103089301A92846D4
:1022140005F032F8D6E700BF00ED00E0064B5A693E
:1022240042F010025A615A6942F480625A615A6952
:1022340022F008025A61704700ED00E0EFF30880D5
:10224400EFF3098101B57246FFF7A4FF01BD00BF9A
:10225400002080F31488BFF36F8F002080F30A8876
:1022640080F30B8806F001F900200E490860BFF3E3
:102274004F8F0D4880F3088800F02EF8202080F35B
:1022840011880A484FF40061401880F30988EFF37D
:1022940014800221084380F31488BFF36F8F00F089
:1022A4000FF9000094ED00E0C8B7002088A60020D4
:1022B400084BD3F89000C0F30720002306E0054A3A
:1022C400C2F898300021C2F8A01001338342F6DB33
:1022D400704700BF00ED00E010B572B6002484F32F
:1022E4001388FFF7E5FF234608E003F120010E4AB7
:1022F4004FF0FF3042F821000133DBB20F2BF4D949
:10230400002308E003F16001074A4FF0FF3042F870
:1023140021000133DBB20F2BF4D962B6BFF34F8F28
:10232400BFF36F8F10BD00BF00E100E008B50A4B9A
:102334009B68834202D006F015FF08BDEFF30583C6
:10234400002BF8D0054B5A6842F080525A605A6A02
:1023540022F400425A62EEE74496002000ED00E0C9
:10236400094A936858676FF00A01996707494B68EF
:1023740043F080534B60002383F31188BFF36F8FC6
:102384009368986F704700BF4496002000ED00E00A
:102394000E4A936883F87D00EFF31183202383F3BF
:1023A4001288BFF36F8F53699360094A4FF000613D
:1023B400516020F0FF0093F87D2010435A6F0021F4
:1023C400596782F31188BFF36F8F704744960020DA
:1023D40000ED00E010498A6882F87DE04FF030009B
:1023E4001044EFF3098C80E8F01F74467046FFF741
:1023F400CFFFA64608498A68864602F1300090E875
:10240400F01F8CF3098802F1000004B504F0B2FF58
:10241400BDE8044070470000449600201EF0040FFD
:102424000CBFEFF30880EFF30980816911F8021CF7
:102434000229FFD001B504F028FF01BD002807DB05
:1024440000F01F02400901239340024A42F8203061
:10245400704700BF00E100E000280CDB00F01F0221
:102464004009012393402030034A42F82030BFF34F
:102474004F8FBFF36F8F704700E100E0002808DB47
:102484004901C9B200F1604000F5614080F80013D1
:10249400704700F00F004901C9B2014B195470474D
:1024A40014ED00E04209054B53F8222000F01F0010
:1024B400012303FA00F01040704700BF00E100E080
:1024C40008B50B4B0B4A22F07F029A60BFF34F8F83
:1024D400BFF36F8FD3F8882022F47002C3F88820EA
:1024E40002F0C4FF03F0C8FD00F04EF803F01AF840
:1024F40000ED00E00000010010B4A2F120040F4937
:1025040042F8081C21F0010142F8081C42F8203C62
:10251400019B42F81C3C029B42F8183C039B42F886
:10252400143C4FF0807342F8043C04650023436775
:10253400C367BC2380F87D3010BC7047F36A010088
:1025440000B50E4615460A4B9860436E83F30B881C
:102554002C4686F309884FF00000064B9847204626
:102564004FF000014FF000024FF00003024C2047EF
:102574004496002081730100F36A0100014B10228C
:102584001A61704700ED00E0002207E003F16043A8
:1025940003F56143202183F800130132442A09DC46
:1025A40053B2002BF2DA03F00F030349194420233A
:1025B4000B76F2E7704700BFFCEC00E008B5EFF3E0
:1025C4000583103B044A02EBC301496852F8330007
:1025D4008847FFF7A1FC08BDA893010010B584B09B
:1025E4000A4C23460A4A01210A4804F0DCFF00236E
:1025F400019302930393084B0193E41A029401217B
:1026040001A804F0D4FF04B010BD00BF00000720EF
:1026140000800020F4B2010028820020024B034A0B
:10262400C3F8C020704700BF00ED00E0AAFF4400DB
:10263400034BC3F89800C3F89C10C3F8A02070475C
:1026440000ED00E00E4BC3F89800C3F89800D3F8EF
:102654009C000A7A60F304020A72D3F8A020C2F341
:102664004202087A62F347100872D3F89C2022F0E1
:102674001F020A60D3F8A03023F01F03CB60704719
:1026840000ED00E0084BD3F89030C3F30723013B7F
:10269400984205D810B5044604F0B6FE204610BD95
:1026A4006FF01500704700BF00ED00E02DE9F04F1A
:1026B40087B08146009101931446002734E0C34556
:1026C40065D12946C0B204F0C5FE2CE0584AC2F8D0
:1026D4009860D2F89C3003F01F0321F01F010B43D4
:1026E400C2F89C302946E0B204F0B4FE044610F16E
:1026F400160F00F09680013415E0013B4C49C1F8F7
:102704009860D1F8A02002F01F0223F01F031343A6
:10271400C1F8A0302946E0B204F09CFE044610F152
:10272400160F7ED001340137009B9F4279DA07EB04
:1027340047054FEA850A09EB85056E68002EF2D03D
:10274400019B23B1284604F073FE002865D031466E
:1027540059F80A0004F0A0FE064610F1160F5FD0E7
:10276400844262DD324BC3F89800D3F89C2022F0F7
:102774001F02C3F89800D3F8A03043F01F0859F89B
:102784000A306968194401F1FF3B934297D09342A0
:102794009CD0C345B1D0013B2549C1F89860D1F81C
:1027A400A02002F01F0223F01F031343C1F8A0303E
:1027B4002946E0B204F04EFE044610F1160F30D064
:1027C40001301B4BC3F89860D3F89C109DF810207F
:1027D40061F304028DF81020D3F8A030C3F3420350
:1027E400D2B263F347128DF8102059F80A306A68A0
:1027F4001344029323F01F03A8EB0B084344013B4B
:1028040023F01F03059302A9C0B2FFF73BFF044660
:1028140010F1160F05D0013485E76FF0150400E0C0
:102824000446204607B0BDE8F08F6FF01504F8E7C2
:1028340000ED00E010B5034C01232278FFF736FFCA
:10284400207010BD7A96002070B505460E4600240F
:1028540000E00134A6421EDD04EB44039A0005EBBC
:10286400830359680029F4D0A85804F015FE04EB3A
:1028740084030B4A42F8230010F1160F0CD0094BC5
:102884001B78984209DA04EB840302EB83010431D8
:10289400FFF7D8FEDDE7002070BD6FF01500FBE701
:1028A400349400207A960020044B0522C3F8942027
:1028B400BFF34F8FBFF36F8F704700BF00ED00E091
:1028C400BFF35F8F024B0022C3F89420704700BF10
:1028D40000ED00E038B51C4B1D681C4BD3F890305C
:1028E400C3F307239D422BD8FFF7EAFFFFF796FEB9
:1028F400002407E0144B596801EB0411204604F04E
:1029040083FD0134A542F5D81148057004F0D5FDC6
:1029140010F1160F13D00E4B1A780C4BD3F89030DD
:10292400C3F307239A4207DA084BC3F8982000211F
:10293400C3F8A0100132F0E7FFF7B6FF002038BD5E
:102944004FF0FF30FBE700BF00B3010000ED00E0F3
:102954007A960020014B1860704700BF0480002065
:1029640068B108B5064A074B1B680749A1FB031366
:102974009B0C00FB03F042F00103984708BD70472D
:10298400E0950100D880002083DE1B4338B5194B45
:102994001B780133184AA2FB031202F4FE7101EB07
:1029A40092029C1AE5B205F003FD144B1B782BB17F
:1029B400134A52F82530C01A072818D9114BD3F8F6
:1029C40014315BB10F4B0022C3F81421D3F8143136
:1029D400084B1D7015B9094B01221A70054B1C7860
:1029E40005F0E6FC064B43F82400012038BD002026
:1029F400FCE700BF7C960020CDCCCCCC7B9600209D
:102A0400489400200050004010B54FF040230222AB
:102A1400C3F8D0260122C3F80427C3F80429C3F855
:102A2400002B002405E00121044B185D04F0F7FDA0
:102A34000134032CF7D9002010BD00BF38B30100C6
:102A440000B583B00DF1070005F02BFD114B984242
:102A54001CD1114B4FF48062C3F8B8254FF40062C7
:102A6400C3F83C250D499DF8070005F00BFD0C4902
:102A74009DF8070005F001FD9DF8073001209840FE
:102A840001F0C6FB002003B05DF804FB6FF00B00FF
:102A9400F9E700BF0000AD0B00A002402CA00240EB
:102AA40028A10240094BD3F83021D3F83431072A46
:102AB40001D000207047042B03D8022B03D300203D
:102AC4007047012070470120704700BF00F00720C5
:102AD40008B50B46034A0121C2F814160021984791
:102AE40008BD00BF0050004008B50249024804F088
:102AF40022FB08BD3CB301005C94002038B50546B8
:102B04000C460021034804F067FD00212846A04735
:102B140038BD00BF005000400048704704950020B5
:102B2400034BC01A8010034B03FB00F0704700BF37
:102B34008C940020B76DDBB638B505460C46FFF71C
:102B4400EFFF01464022034804F012FE01462846E6
:102B5400A04738BD3093010030B583B005460C461C
:102B6400FFF7DEFF0146402300932346054A06484B
:102B740004F018FE011E01DB03B030BD2846A04757
:102B8400FAE700BFF17701003093010008B5062889
:102B940016D8DFE800F0041B1515151611000021E6
:102BA4000D4804F073FD836813F0070F08D100216A
:102BB400094804F0CBFD03E00221074804F0C6FDF8
:102BC40008BD0321044804F0C1FDF9E701210248CE
:102BD40004F0BCFDF4E700BF3093010010B582B0EF
:102BE400EFF31184202383F31288BFF36F8F144A09
:102BF400136843F00201116013F0010F09D100239F
:102C040084F31188BFF36F8FABB904F0F7FD02B002
:102C140010BD0DF1070201210A4804F008FD9DF8DA
:102C24000730012B01D00023EAE7FFF775FF04F01A
:102C34007BFD0123E4E70021034804F087FDE6E778
:102C44002C950020005000403093010010B5EFF3A4
:102C54001184202383F31288BFF36F8F074A13680C
:102C640023F00201116013F0010F04D084F31188E2
:102C7400BFF36F8F10BD04F0D5FDF7E72C9500204E
:102C840070B582B00546012806D12D4BD3F81C340B
:102C940003F00303022B33D006F01DF9044610B9E8
:102CA400284B1B786BB9EFF31186202383F312882A
:102CB400BFF36F8F012484B9214B0222C3F8082388
:102CC4000BE00026F7E7ECB1304604F077FB1C4B31
:102CD400D3F81835DBB2012B18D00DF1070200210F
:102CE400174804F0A4FC0028EDD09DF80730022B0F
:102CF40001D0012DE7D1F4B186F31188BFF36F8FB2
:102D040002B070BD012004F0A1FDE0E70C4BD3F844
:102D14000431002BE1D00A4B0022C3F80421D3F87C
:102D240004210222C3F81825074A2021C2F8801181
:102D340001229A60D1E7024B0222C3F80423DFE7A1
:102D4400005000408096002000E100E000B585B00E
:102D5400CDF800D0CDF804D00023029301230393CF
:102D64006B46074A04F03AFD002805DB4FF4804225
:102D74000023684602F000FD05B05DF804FB00BFC7
:102D84007D78010070B5064600220121052004F07B
:102D9400E5FA114801F09CFA104B984219D101F060
:102DA400A9FA0024032C12D82146304604F06EFC04
:102DB40005462146304604F074FC094904F0BBF989
:102DC400002805DB0123AB601C44E4B2EAE70020E1
:102DD40070BD6FF00400FBE7912B01000000AD0B08
:102DE40048B3010010B504460E4B0121D3E8EF2F80
:102DF400C3E8E01F0028F9D11AB1631E012B0DD9D5
:102E040010BD094804F04DFC084900234B608B6059
:102E1400CB6001238B6004F0ABF9EEE72046FFF7AB
:102E24002FFFEDE788940020309301007894002070
:102E340010B504460A2806D0E1B2064883685B68E8
:102E44009847204610BD034883685B680D21984766
:102E5400F2E700BF6C93010010B5044C2046FFF765
:102E640079FD2046FEF74EF910BD00BF352E010056
:102E740008B5054805F0C7FF18B1FFF7EDFF0020BE
:102E840008BD6FF01200FBE76C930100F0B51C461F
:102E9400059F069E00F01F0C400936D0012836D14C
:102EA400284D0CF1800355F8233091B3012092B3DF
:102EB4004FF0020E40EA0E0084B34FF00C0E40EACD
:102EC4000E0077B34FF4706E40EA0E0066B34FF411
:102ED400403E40EA0E0023EA000041B30B7842B3BF
:102EE40012785200134334B322789200134327B369
:102EF4003A781202134316B332781204134303438D
:102F04000CF1800C45F82C30F0BD0F4DC9E70025BD
:102F1400C7E70020CBE74FF0000ECBE74FF0000EE1
:102F2400CDE74FF0000ECFE74FF0000ED1E70023BE
:102F3400D5E70022D6E70022D8E70022DAE700220C
:102F4400DCE700BF002884400025844000F01F0314
:102F5400400908D0012808D1054A803352F82300DB
:102F640000F001007047034AF7E70022F5E700BFCD
:102F7400002884400025844028B1012801D1034859
:102F84007047002070470248704700BF4493010017
:102F9400589301002DE9F04786B0884615469946B6
:102FA400446801F01F07237B47EA4317204604F0D7
:102FB400CAFC002853D0B5F5001F2AD00DF10C0A25
:102FC4000026039604964946284604F02BFD8DF806
:102FD4000C00009601960296CDF804A0A36823FA8B
:102FE40008F313F0010F02D1B5F1A07F18D010340B
:102FF4006A463946204605F0A4FD1C4B984231D15F
:1030040001223946204605F0C0FD002006B0BDE887
:10301400F087394604F1100005F0BBFD0020F5E708
:103024003846FFF793FF0028E1D104F110050DF1B4
:1030340017023946284605F090FD0D4B984203D0FF
:103044000DF117030493D2E70DF11701284605F09B
:1030540098FD064B9842F3D06FF00B00D6E76FF063
:103064008500D3E76FF01500D0E700BF0000AD0B7B
:103074000400AD0B2DE9F04389B007468946144698
:10308400456801F01F082B7B48EA4318104604F0FA
:103094005FFC8DF81E0040F206332340B3F5837FB6
:1030A4005DD016D8062B56D006D9B3F5807F0DD146
:1030B40001238DF81D3024E003B3022B03D1042334
:1030C4008DF81D301DE06FF015076DE06FF01507EA
:1030D4006AE040F20222934245D0B3F5407F03D127
:1030E40003238DF81D300CE0B3F5007F03D10223D8
:1030F4008DF81D3005E06FF0150755E000238DF8BD
:103104001D30012606FA09F63146384604F02EFC35
:10311400071E49DB14F4002F29D06B689E602846F3
:1031240004F011FC48B310350DF11F024146284646
:1031340005F013FD064614F4403F39D141462846B4
:1031440005F017FD394B9E422ED19DF81F102846DD
:1031540005F013FD28E006238DF81D30D1E7072381
:103164008DF81D30CDE705238DF81D30C9E714F423
:10317400802FD4D06B68DE60D1E7C4F340438DF870
:10318400083014F4803F0CBF012300238DF8103065
:10319400002301930DF11D0300930DF11E0304AAF6
:1031A40002A94046FFF772FE384609B0BDE8F08335
:1031B40002AA0023029303930493059306930592B2
:1031C40004AA4146284605F0BCFC184B984202D09C
:1031D4006FF01507E8E714F4003F1AD09DF81D308E
:1031E4008DF8103014F4803F0CBF012300238DF8B8
:1031F40011309DF81E308DF81230002304AA414688
:10320400284605F0A2FC094B98429BD06FF01507A5
:10321400CAE700230493059306930DF11E03049358
:1032240004AA4146284605F08CFCECE70000AD0BEF
:1032340010B54468204604F086FB08B9002010BD90
:103244001034204605F091FC08B10020F7E7002176
:10325400204605F086FC094B98420BD10022084910
:10326400204605F076FC002205212F2004F076F894
:103274000020E4E76FF00400E1E700BF0000AD0BBD
:10328400617A010070B400F01F0C400919D00128C4
:1032940019D10E4D0CF1800055F820600C4C3440CF
:1032A40041EA420141EA83039DF80C2043EA0223E8
:1032B4009DF8102043EA0243234345F8203070BCB4
:1032C4007047044DE6E70025E4E700BF002884408A
:1032D400F0F0FCFF0025844000F01F01400906D0F7
:1032E400012806D1044A01238B4093607047034AA6
:1032F400F9E70022F7E700BF002884400025844056
:1033040000F01F01400906D0012806D1044A012318
:103314008B40D3607047034AF9E70022F7E700BF08
:1033240000288440002584402DE9F04F85B00746ED
:103334008B469046002423E04FF0FF3535E0C8F873
:103344000C55012603963146B5F1FF3F16D0B1F175
:10335400FF3F40F0138157F80A3013F4004F02D0B6
:1033640001260022039200220192CDF80090C3F3BB
:103374004123324603992846FFF784FF0134E4B21F
:103384005C4580F0FF804FEA840A57F82430C3F389
:10339400C322C3F30805082A00F2F6807E4911F817
:1033A400029040F2FF129542C6D01B0E222B00F26F
:1033B400EE8001A252F823F04333010049340100A6
:1033C4005734010063340100713401007F3401007B
:1033D4008B340100933501009335010093350100CE
:1033E4009335010099340100AD3401009335010097
:1033F40093350100933501009335010093350100A5
:103404009335010093350100933501009335010094
:10341400C1340100D3340100E5340100F734010064
:1034240093350100933501009335010009350100FE
:1034340019350100253501003535010045350100F8
:1034440055350100C8F81455002603964FF0FF3196
:103454007AE7C8F8085501260396314674E7C8F898
:103464001055002603964FF0FF316DE7C8F8085554
:10347400002601230393314666E7C8F80C5501265C
:103484000396002160E7C8F81055002603964FF014
:10349400FF3159E7C8F80855B9F1000F5ED000268E
:1034A40003964FF0FF314FE7C8F80C55B9F1000F00
:1034B4005CD0002603964FF0FF3145E7C8F860550D
:1034C40057F80A10C1F30041012603963CE7C8F8F7
:1034D400645557F80A10C1F300410126039633E7F7
:1034E400C8F8685557F80A10C1F30041012603963D
:1034F4002AE7C8F86C5557F80A10C1F300410126B1
:10350400039621E7C8F824550126002303934FF0BE
:10351400FF3119E7C8F8285501260396314613E709
:10352400C8F830550126002303934FF0FF310BE711
:10353400C8F834550126002303934FF0FF3103E705
:10354400C8F838550126002303934FF0FF31FBE6FA
:10355400C8F83C55012603963146F5E64E46CDF8AB
:103564000C904FF0FF314FF00609EDE64E46CDF8D2
:103574000C904FF0FF314FF00609E5E6284604F0C1
:1035840095FAE8E6002004E06FF0150001E06FF022
:10359400850005B0BDE8F08F08B40100F8B5054614
:1035A4000E46476805F097FC20B9154B1B7843B1CC
:1035B400002300E0012353B9284604F023FB04460A
:1035C40011E00123F7E784F31188BFF36F8FEFF362
:1035D4001184202383F31288BFF36F8F284604F0ED
:1035E400AFFA0028EFD0FB691E700122F969284662
:1035F40004F0CDFA84F31188BFF36F8FF8BD00BFD8
:103604008096002038B505460C4601F1080004F008
:1036140048FF0A4B98420DD105F10C0205F5907153
:10362400207A04F034FF237A0120984000F0F0FD62
:10363400002038BD6FF00400FBE700BF0000AD0BB5
:1036440010B50446426811681369C1F82435537DE6
:1036540092F816C043EA0C03B2F818C043EA0C030C
:10366400127D1343C1F86C3504F016FB00B110BD94
:103674000249204604F022FAF9E700BF897C0100E0
:1036840000F01F01400906D0012806D1044A012395
:103694008B4093607047034AF9E70022F7E700BFC5
:1036A400002884400025844000F01F01400906D012
:1036B400012806D1044A01238B40D3607047034A92
:1036C400F9E70022F7E700BF002884400025844082
:1036D400144B984216D2144B984215D2134B98426D
:1036E40014D2134B984213D8124B984212D8124B4F
:1036F400984211D8114B984210D8114B98420FD9C7
:103704001048704707487047074870470748704794
:103714000D4870470D4870470D4870470D48704775
:103724000D4870470048E8010024F40000127A00B4
:10373400FF083D007F841E003F420F001FA10700C9
:103744008FD0030090D0030000093D0080841E0048
:1037540040420F0020A1070048E801002DE9F04194
:103764008AB005460C4606694768D7F8088096F87B
:103774005D3013B133688B4271D0A28812F4006FAC
:103784006FD112F0010F6FD112F0080F6FD1C2F395
:103794004512082A6ED122683B4B9A426DD93B4BA5
:1037A400984507D93A4BD3F8583513F0030F01D095
:1037B400DFF8D880EC4607F10C0EBEE80F00ACE849
:1037C4000F00BEE80F00ACE80F009EE803008CE891
:1037D40003002068404528BF4046FFF779FF059065
:1037E400A38813F0020F28D013F0040F2AD0032368
:1037F4008DF81830A38813F0100F27D001238DF80B
:1038040019303B68D3F80805A188C1F3400104F0DE
:10381400E7FA96F85D30DBB92B461E4A694638460E
:1038240001F072FC1C4B98422AD1012386F85D30CA
:10383400346000200AB0BDE8F08113F0040F03D017
:103844000123D5E70223D3E70023D1E70023D6E7FA
:10385400384601F091FC002386F85D30DCE7002057
:10386400E8E76FF08500E5E76FF01500E2E76FF039
:103874001500DFE76FF01500DCE76FF01500D9E7FE
:103884006FF00400D6E700BF47E801000024F4000D
:1038940000500040EB7F01000000AD0B2DE9F0412A
:1038A40084B0054604694768A26C002A49D0236D98
:1038B400002B48D0934228BF1346002B4BD0616C99
:1038C400D4F84C803E8F9E4200D31E4669B162B14B
:1038D40001F06043B3F1005F07D0082E00D9082639
:1038E4003246206E05F0C1FC216EE26C5AB1236DA4
:1038F4004BB108F06043B3F1005F04D0082E00D947
:103904000826D4F86480A6650091636CEBB1A36CBF
:10391400EBB90193CDF80880DAB1236D03B91E46E3
:10392400039600226946384601F086FC0B4B984208
:1039340004D06FF00401284604F0E2FA04B0BDE8B4
:10394400F081236DB9E71346B7E70023E1E7334677
:10395400DFE70026E4E70021EDE700BF0000AD0B40
:1039640070B50446456806690021E86B04F003FC61
:10397400002811DB296CB1F1FF3F0ED16B6B984726
:10398400304604F029FC002806DB304604F097FAA0
:103994000749204604F012FA70BD05F1440000F016
:1039A40033F810F1130FF7D010F1050FE6D1F3E758
:1039B4009B81010070B400F01F0C400919D001284C
:1039C40019D10E4D0CF1800055F820600C4C344098
:1039D40041EA420141EA83039DF80C2043EA0223B1
:1039E4009DF8102043EA0243234345F8203070BC7D
:1039F4007047044DE6E70025E4E700BF0028844053
:103A0400F0F0FCFF0025844030B587B004460D4635
:103A140001238DF8173002238DF80C300DF11601B7
:103A240004910DF11703009303AB01930023029358
:103A340005F0A7F80C4B984212D16A462946204655
:103A440005F07FF8084B984202D1002007B030BD42
:103A54009DF81610204605F090F86FF00400F5E785
:103A64006FF01200F2E700BF0000AD0B21F07F41C0
:103A740000F5A870014B43F8201070470050014036
:103A84004FF480338340024AC2F84433704700BF86
:103A9400005001404FF480338340024AC2F8483357
:103AA400704700BF00500140014BD3F80405704734
:103AB400005001402DE9F843054689469046FFF73A
:103AC400E9FF284604F03CFC4E46032710E0FFF7CC
:103AD400EBFF0446494604F022FCB0F5000F26D95A
:103AE400284604F02DFCB8F1000F22D13E1901370D
:103AF40031462846FFF7BAFF2846FFF7C1FFFFF714
:103B0400D3FF0446C11C304604F009FC0A4B98421A
:103B14000AD9284604F007FC0028D8D1B8F1000FD0
:103B2400E4D06FF0150000E00020BDE8F883002029
:103B3400FBE76FF01500F8E7FDFF7F00034B044A35
:103B4400C3F80823C3F84823704700BF005001405E
:103B540003000F0010B5012383406FEA030C0C4AE5
:103B6400D2E8EF1F01EA0C0EC2E8E4EF002CF7D113
:103B74004FF4803282400748C0F80823BFF35F8FB8
:103B8400BFF36F8F0B4214BF0120002010BD00BF94
:103B940078950020005001404FF480338340124A4E
:103BA400D2F80423134201D10020704710B5044613
:103BB40001238340DB430D49D1E8EF2F02EA0300E0
:103BC400C1E8EC0FBCF1000FF6D122FA04F313F0B4
:103BD400010F03D1204604F0A6FB18B1204604F0DF
:103BE400AFFB012010BD00BF0050014074950020C0
:103BF40001B97047012383400D4AD2E8EFCF4CEA64
:103C0400030CC2E8E1CF0029F7D14FF4803383409D
:103C1400084AC2F80433084BD3E8AF3FC34013F05B
:103C2400010FE6D0054B4FF40012C3F80021E0E782
:103C340078950020005001407495002000E100E0D8
:103C440038B514461046194604F086FB02460D4961
:103C54000B68E01A1B184C6844F100040B604C60BC
:103C6400A2F50013B3F5400F09D2074B1B68190ADC
:103C74001B06D41841F10005044BC3E9004502F0CA
:103C8400BDFA38BD388200207C9500204082002097
:103C940038B50D4B1C68250A2406BFF35F8FFFF768
:103CA40003FF0346001945F10001B3F5801F0AD252
:103CB400064BD3E90023904271EB030303D210F1C6
:103CC400807041F1000138BD7C95002040820020C5
:103CD4002DE9F041064614461D469DF82080104605
:103CE400194604F039FB0746FFF7D2FFA04271EBF7
:103CF400050319D2201A65EB01011B4B984271F19F
:103D040000012BD2194B03EB0613D3E90223AB4278
:103D140008BFA24201D1002014E042463946304691
:103D2400FFF7C8FE70B117E0B8F1000F19D10123F5
:103D3400B3400F4AD2E8EF0F1843C2E8E10F00295D
:103D4400F8D10020094B320103EB0616C6E90245FF
:103D540006999950079B7360BDE8F0816FF01500D8
:103D6400FAE76FF01500F7E70100800028820020D1
:103D74007495002030B585B0FFF7E0FE00231E4A9D
:103D8400C2F80835002B25DD1B4C0225C4F804536A
:103D94001A4B4FF40012C3F8802100220121152090
:103DA40003F0DCFA152003F0CFFA0123A3602360AB
:103DB400134A1360002402940194124B0093124A94
:103DC4000023204604F0D8FA2846FFF70BF82046D3
:103DD40005B030BD0D4A02EB03124FF0FF304FF037
:103DE400FF31C2E902014FF480329A400249C1F81E
:103DF40004230133C6E700BF0050014000E100E0A6
:103E040078950020453C0100FFFF7F0028820020B8
:103E14002DE9F04782B00446FFF7BEFE10B902B0A8
:103E2400BDE8F087FFF734FF82460D4604F097FAA9
:103E34000646154B03EB0413D3E90289C24575EB1F
:103E440009050BD20025304604F091FA002DE6D086
:103E5400009742464B462046A847E0E70A4A23011A
:103E640002EB0411D5584F680020D0504FF0FF32B8
:103E74004FF0FF33C1E902232046FFF70BFE204633
:103E840004F05EFADFE700BF2882002010B50D4B76
:103E9400D3F8043313F0020F03D10024002C0BDDFC
:103EA40010BD0221074804F004FA0028F5D0064AA0
:103EB400136801331360F0E72046FFF7A9FF0134CC
:103EC400ECE700BF005001407C95002010B584B0A1
:103ED400B0F1FF3F18D001281BDD154B9842A8BF55
:103EE40018460446134B01221A70FFF7D1FE124BF9
:103EF4001A685B68801AB0F5000F0CD20444B4F55C
:103F0400000F09D30A4C07E00A4B00221A70084C30
:103F1400EBE70124E6E7064C002012190290019019
:103F24000649009143F1000304F026FA04B010BDE1
:103F3400FFFF7F007F96002038820020453C01006F
:103F440008B5FFF7A5FE024B1B68C01A08BD00BFE9
:103F540038820020104B5B6D13F4805F15D116205E
:103F640013F4006F00D0182013F4007F02D00B4A22
:103F7400926B192013F4806F00D01A2013F4807F01
:103F840005D113F4005F04D170471720E8E71B2024
:103F940070471C20704700BF8095002000ED00E0B2
:103FA400134BDB6D13F0010F13D113F0020F12D179
:103FB40013F0040F11D113F0080F10D113F0100FE8
:103FC4000FD113F0200F0ED113F0800F0DD1252047
:103FD40070472620704727207047282070472920E3
:103FE40070472A2070472B2070472C20704700BF51
:103FF4008095002008B50249024804F005FA08BD7E
:104004004D4001008095002038B50C4600F00805AD
:104014000C4B196F204604F0D1F94DB9E369C3F391
:1040240008025AB96FEA53236FEA4323E36105E0B8
:10403400E36923F4FF7323F00103E361214603F0F2
:104044001BF938BD8095002000B589B00F4B5A6A22
:1040540000929A6A0192DA6A02921A6B03925A6B7C
:1040640004929A6B0592DA6B06921A6C0792D86CDA
:1040740020F005001B6D13F0020F01D040F0040086
:104084006946FFF7C1FF09B05DF804FB8095002085
:104094002DE9F041A2B00446884615461E46114B50
:1040A4001F783FB14FF0FF324FF0FF330E4801F05D
:1040B40081FA80B9684603F045F9289B32462946BF
:1040C4004046A0470446684603F03DF937B9204608
:1040D40022B0BDE8F0816FF08304F8E7024801F0F4
:1040E400E9FAF4E7809600201082002000B589B038
:1040F40007900023039304930593069307AB03935C
:1041040004230493A1B10B46096805915B680693E7
:1041140002237AB101210191009203AA40F2F53100
:10412400064800F00DF8002806DB09B05DF804FB32
:104134000123EEE70021EEE70120F6E70501004048
:1041440010B582B0059CB1F5004F17D2042B18D8D6
:10415400042C19D889B21B0603F0E06C41EA0C0C5C
:10416400240404F4E024049B009313464CEA040260
:1041740001460748FFF78CFF02B010BD6FF08000C6
:10418400FAE76FF08000F7E76FF08000F4E700BF14
:10419400217C000010B50468ACB1B4FA84F3C3F117
:1041A4001F03DBB201229A4024EA0202D0E8EFCFD7
:1041B400A44504D1C0E8EE2FBEF1000FF6D1EAD138
:1041C4000B70024810BD0248FCE700BF0000AD0BB5
:1041D4000200AD0B0368CB4013F0010F11D100B501
:1041E400026801238B401343D0E8EFCF944504D1F8
:1041F400C0E8EE3FBEF1000FF6D1F1D102485DF800
:1042040004FB0248704700BF0000AD0B0400AD0B77
:10421400014BC3F8040570470070014070B582B0CB
:104224000646032850D8DFE800F00216212E274B5B
:104234000222C3F808230122DA600022C3F8042111
:10424400D3F8043101238DF807309E4228D000258D
:1042540042F210742CE01D4B0122C3F808235A606B
:104264000022C3F80021D3F80031EBE7174B4FF4D9
:104274000072C3F8082301225A620022C3F82421E1
:10428400D3F82431DEE7114B4FF48072C3F80823CE
:104294000122DA610022C3F82021D3F82031D1E7CA
:1042A4000DF10705D4E7012004F0E3F8013C0BD03D
:1042B4002A463146054804F0F8F828B1002DF2D01A
:1042C4009DF80730012BEED002B070BD00500040C5
:1042D400054B1B792BB9044B186001221A71034852
:1042E40070470348704700BFF49500200000AD0BF1
:1042F4000C00AD0B08B5084B1B680BB104F006F9B4
:1043040004F002F9054BC3F818050122C3F814257B
:10431400C3F8802508BD00BFF4950020005000407C
:1043240000B583B003281BD8DFE800F01D026963E1
:1043340000224FF48073012003F1804303F5A0436E
:1043440000211960196802F1804202F5A04201219E
:104354001160314A1268002A57D0304BC3F8040365
:1043640003B05DF804FB2D4BD3F81824D3F81834AC
:1043740003F003038DF8073012F4803F13D1274B69
:10438400D3F8143413F0010F12D104F0BDF88DF8F2
:1043940007009DF80720214BC3F8182508224FF485
:1043A40082730220C8E70DF1070004F0B9F8F0E7C2
:1043B4001A4BD3F81C3403F003038DF807300DF1C6
:1043C400070004F0ADF80028E3D0134B1B6823B1B9
:1043D400124B0222C3F80423C2E7104BD3F8043172
:1043E400002BFAD00D4B0022C3F80421D3F804317A
:1043F400B6E718224FF490734FF480709CE72022A4
:104404004FF492734FF4007096E71A68002AFCD0B8
:1044140000221A601B68A3E7F495002000500040B6
:1044240008B52B4BD3F800315BB1294B0020C3F8FE
:104434000001D3F800210122C3F80823254B1B688F
:104444009847234BD3F80431ABB1214B0022C3F876
:104454000421D3F80421D3F81824D3F8183403F032
:104464000303012B2CD01A4B0222C3F80823194B47
:104474001B6801209847164BD3F820316BB1144BBD
:104484000022C3F82021D3F820214FF48072C3F80E
:104494000823104B1B68052098470D4BD3F8243193
:1044A4006BB10B4B0022C3F82421D3F824214FF421
:1044B4000072C3F80823074B1B680620984708BD01
:1044C400034B0222C3F8182501229A60D3E700BFE8
:1044D40000500040F495002008B501460148FFF75C
:1044E40059FE08BDDC80002070B400F01F0C4009A8
:1044F40019D0012819D10E4D0CF1800055F8206017
:104504000C4C344041EA420141EA83039DF80C20FB
:1045140043EA02239DF8102043EA0243234345F86B
:10452400203070BC7047044DE6E70025E4E700BF87
:1045340000288440F0F0FCFF00258440F0B51C46C0
:10454400059F069E00F01F0C400936D0012836D185
:10455400284D0CF1800355F8233091B3012092B318
:104564004FF0020E40EA0E0084B34FF00C0E40EA06
:104574000E0077B34FF4706E40EA0E0066B34FF44A
:10458400403E40EA0E0023EA000041B30B7842B3F8
:1045940012785200134334B322789200134327B3A2
:1045A4003A781202134316B33278120413430343C6
:1045B4000CF1800C45F82C30F0BD0F4DC9E70025F7
:1045C400C7E70020CBE74FF0000ECBE74FF0000E1B
:1045D400CDE74FF0000ECFE74FF0000ED1E70023F8
:1045E400D5E70022D6E70022D8E70022DAE7002246
:1045F400DCE700BF002884400025844000F01F024F
:10460400400907D0012807D1044B1869D04000F0B5
:1046140001007047024BF8E70023F6E700288440C6
:104624000025844000F01F03400908D0012808D168
:10463400054A803352F82300C0F301407047034A0F
:10464400F7E70022F5E700BF0028844000258440F6
:1046540000B583B084468E460C4B93E8030002AB4E
:1046640003E90300634609E002A901EB830151F861
:10467400081C086A42F8040B086201330CEB0E00B4
:104684009842F1D803B05DF804FB00BFD095010057
:1046940000F01F01400906D0012806D1044A012375
:1046A4008B4013627047034AF9E70022F7E700BF23
:1046B40000288440002584404309034AD35C00F069
:1046C4001F001844C0B270477CB5010000EB4010D5
:1046D400014B03EB80007047E08000202DE9F0419E
:1046E40084B005460C4616461F460846FFF7E4FF0D
:1046F400804656B32146284604F009F828B12146DD
:10470400284603F0C4FF002843D12146284603F07D
:10471400CDFF10B17378012B3BD001238DF80F30FE
:10472400002301930096B31C721C0DF10F01204667
:10473400FFF704FF2879FFF7C9FF08F1080230F8F2
:10474400123043F0030320F81230002F3BD02146EF
:10475400284603F0DCFF002837D13E782B6806F5A5
:10476400A272002143F8221043F822102879FFF79F
:10477400ADFF08F1080230F8123023F02003DB0407
:10478400DB0C20F812307B782BB9114804B0BDE85B
:10479400F0811048FAE7BA78009222463146286838
:1047A40003F0F0FE2879FFF791FF024608F10800B4
:1047B40032F810307603B6B2334343F0200322F8C4
:1047C40010300348E2E70248E0E70248DEE700BFB2
:1047D4000000AD0B0400AD0B70B506460D46144643
:1047E40003F055FF68B13079FFF770FF064628469D
:1047F400FFF762FF083036F810305B0B2370024875
:1048040070BD0248FCE700BF0000AD0B0400AD0B17
:1048140030B583B005460191002400E00134012C39
:1048240018D80E4B1B5D03F0070202A901EBD3035A
:1048340013F8043CD34013F0010FEFD005EB8402CE
:1048440001212046FFF704FF55F82430002BE5D062
:10485400012000E0002003B030BD00BF8CB5010092
:104864002DE9F04182B00546884616461F4604F0FD
:10487400ACF8AEB33A463146284603F0B6FF041E00
:1048840020DB2879FFF722FF40F834602879FFF70E
:104894001DFF00EBC40047602879FFF717FF0546AA
:1048A4004046FFF709FF083035F81030E4B26402DF
:1048B400A4B2234343F4807325F81030094802B0AE
:1048C400BDE8F0812879FFF701FF0DF10701783089
:1048D400FFF760FC034B9842F1D19DF80740D0E705
:1048E4000048ECE70000AD0B2DE9F04385B0044629
:1048F4000D4617460846FFF7DFFE0646D7F8008048
:10490400B8F1000F28D02946204603F0EFFE002816
:104914004FD100238DF80E308DF80F3001930093A2
:1049240043460DF10F020DF10E012846FFF706FE76
:104934002079FFF7CBFE06F1080830F8183023F091
:10494400020320F818302079FFF7C0FE30F8183041
:1049540043F0010320F818307B68F3B193F800802A
:10496400D3F804902946204603F0B1FE18B3B9F1F8
:10497400000F67D12079FFF7A9FE083630F816300A
:1049840023F01C0320F816302079FFF79FFE30F83F
:10499400163043EA880320F81630BA68002A55D046
:1049A4005368126829462046FFF75AFF05B0BDE850
:1049B400F0832748FAE72079FFF788FE06F108021A
:1049C40030F8123023F02003DB04DB0C20F8123023
:1049D400B9F1000FCED0B8F1030F35D87B685B680E
:1049E40093F80090B8F1000F08D1236809F5A27973
:1049F400002243F8292043F82920BBE7404603F06E
:104A04008EFE0346216809F5A27C51F82C2022F081
:104A1400030241F82C202A464946206803F099FDF8
:104A24002079FFF753FE06F1080230F812304FEAFE
:104A340049391FFA89F943EA090343F0200320F8AE
:104A4400123097E70248B1E70148AFE70148ADE704
:104A54000400AD0B0000AD0B38B505460C4603F061
:104A640007FE08B9074838BD2146284603F088FEEA
:104A74002146284603F0D4FF204603F0DDFD02481A
:104A8400F1E700BF0400AD0B0000AD0B70B582B0C0
:104A940005460E460079FFF719FE90F8803013B1F1
:104AA4000B4802B070BD044660220021103004F0AF
:104AB400E9FB236F0093002332464FF0004128683E
:104AC40003F0DAFF012384F88030A3670148E8E7A4
:104AD4000C00AD0B0000AD0B2DE9F04383B0804614
:104AE4000F46002300930193C96F6846FFF790FEB9
:104AF4004BE094FAA4F4B4FA84F404F01F05254BB3
:104B04009B5D45EA43152846FFF7D6FD083037F884
:104B14001090C9F382090DEB8603E00804F0070442
:104B24001A5C0121A14022EA01021A542846FFF727
:104B340079FD03464A462946384603F006FF2846CF
:104B4400FFF7A6FD02AB03EB860353F8084C002CD9
:104B5400CFD10136012E0DD80F4B9B5D07F17C029E
:104B6400D90803F00703525C22FA03F313F0010F90
:104B7400EFD0E7E73A6F4FF00041404603F03EFDC7
:104B8400F96F6846FFF744FE08B10026E2E703B078
:104B9400BDE8F08390B501008CB5010008B5024969
:104BA400024803F0B4FF08BD6481002000F0024015
:104BB40070B400F01F0C400919D0012819D10E4D12
:104BC4000CF1800055F820600C4C344041EA42015D
:104BD40041EA83039DF80C2043EA02239DF8102048
:104BE40043EA0243234345F8203070BC7047044D28
:104BF400E6E70025E4E700BF00288440F0F0FCFF6E
:104C04000025844000F01F01400906D0012806D188
:104C1400044A01238B4093607047034AF9E700225A
:104C2400F7E700BF002884400025844000F01F01FE
:104C3400400906D0012806D1044A01238B40D360E1
:104C44007047034AF9E70022F7E700BF00288440D1
:104C54000025844070B582B00C460379097C03EBCF
:104C6400C302204B03EB82039A7F61F341029A77DC
:104C740094F82330002B30D162691B4B9A422ED01A
:104C84000026237E012B94BF002301230093334687
:104C940000220121206804F034F8002500953346F1
:104CA4002A460121606804F02CF800953346A27E60
:104CB4002946A06804F025F8237C83F001030093BF
:104CC40033462A460121E06804F01BF801210091D3
:104CD40033462A46E06904F014F802B070BD032696
:104CE400CFE700BFFC9500200048E8011B4B994228
:104CF4002AD014D81A4B994228D004D9194B994276
:104D04000BD000207047184B994221D0174B994281
:104D140001D0002070470120704701207047144BD8
:104D2400994217D004D9134B99420BD000207047F5
:104D3400114B994210D0114B994201D00020704779
:104D440001207047012070470120704701207047FF
:104D540001207047012070470120704780841E00A5
:104D640020A1070040420F0048E8010090D0030052
:104D74000024F4000048E80100093D0000127A0014
:104D8400224B984226D009D9214B984231D018D9C8
:104D9400204B984236D14FF0A05070471E4B98429A
:104DA4001BD005D91D4B984220D14FF0805070473D
:104DB4001B4B984214D01B4B984214D14FF0806087
:104DC4007047194B984217D0184B984217D14FF09F
:104DD400004070474FF0005070474FF0006070473C
:104DE4004FF0007070474FF0804070474FF08040A4
:104DF40070474FF0206070474FF0804070474FF08D
:104E0400804070474FF08040704700BF80841E0090
:104E14000024F4000048E80120A1070040420F00EC
:104E240048E8010090D0030000093D0000127A0018
:104E340070B506460C464D692946FFF757FF002812
:104E440049D02E4B9D420DD02D4B9D420AD094F853
:104E540021301BB1E368B3F1FF3F03D1E369B3F140
:104E6400FF3F04D0327901239340012B35D994F8C4
:104E7400233013B194F824308BBB3268214B9A420F
:104E840001D0214828E01D4B9D4201D01E4823E05B
:104E94002368B3F1FF3F01D0082B22D16368B3F13B
:104EA400FF3F01D0092B1ED1A368B3F1FF3F01D00E
:104EB4000A2B1AD194F821302BB1E368B3F1FF3FE8
:104EC40001D00B2B13D1E369B3F1FF3F11D00C2BAD
:104ED40011D10D4800E00D4870BD0D48FCE70A48AB
:104EE400FAE70A48F8E70948F6E70848F4E7074804
:104EF400F2E70548F0E70548EEE700BF0048E8019F
:104F04000024F40000A000400000AD0B0400AD0B31
:104F14000300AD0BF0B58BB005460C460679486925
:104F2400FFF72EFF074694F8231006EBC602394B11
:104F340003EB82039A7F61F300029A7721462846A5
:104F4400FFF788FE2A7901239340012B0BD994F8AB
:104F5400213043B106EBC6062E4A02EB86064FF01B
:104F6400FF3232620DE0E1682A4B06EBC60203EB26
:104F740082021162217C1346927F61F341029A7787
:104F840000232268009262680192A2680292A27CC5
:104F94008DF80C200497227E8DF81420627E8DF803
:104FA4001520E269069233B1E268079233B1227C9C
:104FB4002AB1012203E04FF0FF32F6E700228DF818
:104FC400202013B394F822308DF821302A7901235C
:104FD4009340012B1BD994F820308DF8223094F89B
:104FE40024308DF824306946286803F0EFFD2B79CE
:104FF40003EBC303074A52F8233023B1286840F374
:10500400073002F0A1F90BB0F0BD0223DCE7022364
:10501400E3E700BFFC95002070B584B004460D465C
:105024009C46136823B103F06043B3F1005F06D1DB
:1050340093684BB103F06043B3F1005F04D00023E5
:105044006B772F4804B070BD1CF0010F2ED00123E4
:10505400C4F850351CF0020F2CD00123C4F840359D
:105064000FCA04AE06E90F00C4F84405C4F8481595
:10507400C4F83425039BC4F838350023C4F8183128
:10508400D4F818310723C4F800351CF0080603D1FE
:105094002B689BB1012323612B68FBB11CF0040F27
:1050A40029D04023C4F808331648CBE70023C4F8BA
:1050B4005035CFE70023C4F84035D1E701232361FD
:1050C400D4F81831002BFBD0D4F81831002BE3D0DE
:1050D4000023C4F81831D4F81831DDE7002128463C
:1050E40003F038FE0EB10748ACE72946204603F02A
:1050F40049FE0448A6E74023C4F804330148A1E765
:105104000A00AD0B0000AD0B2DE9F0410D461F4622
:10511400047904EBC403154901EB83010B7F1BBB2A
:10512400064690463DB12946FFF782FE104B984251
:1051340001D0BDE8F0810D4B04EBC40203EB820106
:1051440043F822804F601DB129463046FFF7E2FE46
:10515400064B04EBC40203EB820200215177134691
:1051640001221A770248E4E70248E2E7FC950020AE
:105174000000AD0B0C00AD0B2DE9F04186B00546E7
:10518400047904EBC4014FEA8108294E06EB810738
:10519400006840F3073002F0DCF856F808303BB101
:1051A4002B68244AC3F808233946286803F0EAFD2B
:1051B4002B68D3F808050390D3F80C650496D3F84C
:1051C4001075059704EBC402194B03EB82039B7F14
:1051D40013F0010F09D004EBC404154B03EB840353
:1051E40000221A7706B0BDE8F08103F0ABFD384623
:1051F40003F0A8FD304603F0A5FD04EBC4020C4BFC
:1052040003EB8203186A03F09DFD2A79012393407E
:10521400012BE0D92B68D3F86C050190D3F8145511
:10522400029503F08FFD284603F08CFDD3E700BF01
:10523400FC95002052010800F8B590F804C00CEB6E
:10524400CC03154D05EB83056B7F1BBB06460C4653
:1052540017460CEBCC03104A52F8233023B117F055
:10526400140F01D101226A770CEBCC0C0A4B03EB2F
:105274008C0C0CF10C0C94E80F008CE80F0001214D
:10528400284603F067FD3B46224629463068FFF76F
:10529400C3FEF8BD0148FCE7FC9500200B00AD0BF4
:1052A40008B50249024803F099FD08BDFC950020A9
:1052B40000B0004008B50249024803F08FFD08BD64
:1052C4002096002000A00040034B00E01433034A62
:1052D4009342FBD3704700BF30930100A8930100B1
:1052E40038B5EFF31185202383F31288BFF36F8F52
:1052F400054B9C6803F09FFD85F31188BFF36F8F06
:105304002046FDF713F838BD4496002038B505460D
:105314000A4B53F8204002E02368984708346B1C7A
:10532400064A52F82330A34206D96368002BF3D00F
:10533400204603F083FDF1E738BD00BF9CB50100B2
:1053440010B586B00F4C04EBC01400EB800C0E4B70
:1053540003EB8C0300220592012104910F21039198
:10536400029201920093094B4FF4A072084901EB99
:105374008C11204600F054FA637B23F0040363731A
:1053840006B010BD4882002044960020838E0100A0
:1053940088AE002008B553EA020102D103F0A1FD52
:1053A40008BD0249183000F0A3FEF9E7E9900100B6
:1053B40010B586B0184C14E0636A0593236A04930D
:1053C400E3690393A36902936369019323690093D7
:1053D400E368A2686168206800F022FA23685C65CB
:1053E40030340E4B9C42E7D300F0AAFC0A4C00E098
:1053F40030340A4B9C420BD2A26AE36AB3F1FF3FFA
:1054040008BFB2F1FF3FF3D02068FFF7C3FFEFE717
:1054140000F0AEFC06B010BDD0950100D09501009F
:1054240008B50B4B01221A700320FFF76FFFFCF73E
:1054340063FD03F023FD0420FFF768FFFFF7B8FFC7
:10544400FBF7CAF9034A137B23F00103137308BD66
:1054540080960020C882002008B50146014A02480F
:10546400FDF76EF825540100C882002008B50348F2
:10547400034A121A002103F0F9FC08BD2882002017
:105484008496002010B50446FFF75AFF0A4901EB41
:10549400C4110A4A04EB840302EB8303D9601C742D
:1054A400074B03EBC42303F5006304EB840402EB12
:1054B4008402536010BD00BF48820020449600203F
:1054C40088A6002070B586B000F070FC104D114B1A
:1054D4005D61114B0593012304930024039402940A
:1054E400019400940D4B4FF400620D49284600F0DE
:1054F40097F906466B7B23F004036B73284603F08D
:105504008AFD2046FFF7BEFF304606B070BD00BFDF
:10551400C88200204496002094B50100255401005F
:10552400C8AF002008B50020FFF7F0FE1D4B03F5BF
:10553400006282F3088883F30A881B4CE02384F812
:1055440022300025E57725766576A57684F8205007
:10555400636A43F4E023636284F82350FCF75EFE3D
:10556400FDF70CF84FF0FF33A362E362FDF7B2F9E5
:10557400FDF734F80D4C0126667326736566A5663F
:10558400204600F0BDFE0A4B9C60FFF79DFE3046AE
:10559400FFF7BCFE0220FFF7B9FEFFF793FFFFF70A
:1055A4005BFF00BF88A6002000ED00E048830020D8
:1055B400449600202DE9F04182B00446EFF31187B0
:1055C400202181F31288BFF36F8FC16899B9002934
:1055D40050D1364B9B6893F90E3023610131E16061
:1055E400324B9B68A36087F31188BFF36F8F002051
:1055F40002B0BDE8F08116461D4682682B4B9B68BD
:105604009A42E4D055EA060136D092F90E8041461A
:1056140093F90E0003F040FC804534DC4FF00008A1
:105624000096019522463946214800F0C7FA002821
:10563400DED0EFF31185202383F31288BFF36F8F3D
:10564400A36843B323689C4223D013B3216993F91D
:105654000E0003F021FC0146204603F028FCE8B9C3
:10566400B8F1000F1AD185F31188BFF36F8F6FF073
:105674000A00BDE72369B0E787F31188BFF36F8F92
:105684006FF00F00B4E70146204603F010FC80469B
:10569400C6E72169E0E7B8F1000FE4D029460448E1
:1056A40000F004FB6FF00A00A2E700BF449600205C
:1056B4006496002038B5836873B30446194A926827
:1056C40093422CD1C368012B03D9013BC360002052
:1056D40038BDEFF31185202383F31288BFF36F8F56
:1056E400016903F0E4FB204603F002FDA06060B111
:1056F40090F90E3023610024846703F08CFC294662
:10570400094800F0D3FA2046E2E70020E06085F380
:105714001188BFF36F8FDBE76FF01500D8E74FF008
:10572400FF30D5E7449600206496002038B504463F
:10573400EFF31185202383F31288BFF36F8F03F0F7
:10574400D7FC40B10022826703F065FC2946094872
:1057540000F0ACFA38BDA368E268934207D0012296
:105764001344A36085F31188BFF36F8FF2E700221F
:10577400F6E700BF6496002010B582B0EFF3118104
:10578400202484F31288BFF36F8F846844B1013CF2
:10579400846081F31188BFF36F8F002002B010BDC5
:1057A40053EA020406D0009201930246054800F031
:1057B40005FAF3E781F31188BFF36F8F6FF00F00E1
:1057C400ECE700BF6496002038B50446EFF311857A
:1057D400202383F31288BFF36F8F04E06FF00A0273
:1057E400826703F018FC204603F082FC0028F5D100
:1057F4000023A3602946024800F058FA38BD00BFD0
:105804006496002008B553EA020102D103F069FB53
:1058140008BD0249183000F06BFCF9E7E99001007B
:10582400F0B585B004460E4615461F4600F15803F0
:105834008365C3650E9B04220D9903F056FB2A462B
:105844003146204603F03EFB05460C9B02930B9B1E
:1058540001930A9B00933B46024631462046FCF7DF
:105864004BFE00236365054B9B6823B11B6F2367C5
:10587400284605B0F0BD2367FAE700BF4496002030
:1058840010B5114B53F8184F9C420FD074B180B926
:105894000D4B9B685A7B12F01F0F0AD1A26942B9C3
:1058A400DA897F2A05D9084A53610BE0064BDC6884
:1058B400EDE7054B9B68A34202D0204600F07CFB39
:1058C400014B5C6110BD00BF4496002008B5437BCA
:1058D40090F90D20002A08DB094B9B68834214BF12
:1058E40000200120FFF7CCFF08BD03F07F034373C2
:1058F4004268036813605A60002303604360EBE767
:1059040044960020B3F1FF3F08BFB2F1FF3F00D13E
:10591400704708B50249183000F0EAFB08BD00BF23
:10592400E9900100427B90F90D30002B33DB70B518
:10593400044612F01F0F01D1866906B170BD62F0F2
:105944007F024273144B53F8185F9D4208D13546C9
:1059540006E06B68636025601C606C6017E0354688
:105964006DB12946204603F0F3FA0028F1DC002D3E
:10597400F6D0094BDB699D42F1D02D68F0E7064B68
:10598400DA6903F11801216062601460DC610020AF
:10599400FFF776FFD2E7704744960020437B0B4223
:1059A4005AD170B504460D460B43437313F0800F70
:1059B40010D1082D19D000260120FFF761FF102D0A
:1059C40036D0002E3BD1BFF35F8F637B23F060039F
:1059D400637370BD03F07F0343734268036813600D
:1059E4005A60002303604360E3E7A3685BB1626825
:1059F400236813605A60002323606360627B22F093
:105A040002026273A36004F1180003F005FC04F1C0
:105A1400580003F0A7FA114B9B68A34201D000265B
:105A2400CAE7EFF305830BB90026C5E70126C3E7F0
:105A3400BFF35F8F637B23F060036373C9E7084D93
:105A440001236B732B7300236B66AB66284600F04F
:105A540057FC024B9D60B6E7704700BF4496002098
:105A64004883002038B505460C46124B9868437BA2
:105A740013F0600F05D013F0200F07D00821FFF7B3
:105A84008DFF84F31188BFF36F8F0EE01021F6E7CA
:105A9400EFF31184202383F31288BFF36F8F03F095
:105AA400F9F984F31188BFF36F8F6B7B13F0600FE8
:105AB400EED138BD44960020F8B504460E4615468E
:105AC40000F1580703F03EFAB8B1637B55B12022C8
