:020000040000FA
:10000000F80B0020390800002D0900000F6F0000D8
:10001000396F0000636F0000B76F00008D6F000044
:10002000000000000000000000000000553100004A
:100030002D090000000000002D0900002D0900001E
:100040002D0900002D090000000000002F460000CF
:10005000000000002D09000000000000000000006A
:100060002D0900002D0900002D0900002D090000B8
:100070002D0900002D0900002D0900002D090000A8
:100080002D0900002D090000000000000000000004
:100090002D0900002D0900000000000000000000F4
:1000A0002D0900002D0900002D0900002D09000078
:1000B0002D0900002D0900002D0900002D09000068
:1000C0002D0900002D0900002D0900002D09000058
:1000D0002D090000000000002D09000000000000B4
:1000E0002D090000000000002D0900002D0900006E
:1000F000000000002D090000000000002D09000094
:100100000000000000000000000000002D090000B9
:100110002D090000000000002D0900002D0900003D
:10012000000000002D090000000000000000000099
:1001300000000000000000000000000000000000BF
:1001400000000000000000000000000000000000AF
:100150002D09000000015F5F02000000FE0B00009F
:1001600029320000800600000000000000000000AE
:100170000000000000000000000000000100FFC3BC
:10018000000000C4002200200000000001015F5FA9
:10019000030100001F0100004102000000000000F8
:1001A000000000000100000001000000000000004D
:1001B000000000000000000000000000000000003F
:1001C0000000000070000000747200008000000059
:1001D000000F0000010000001D03000001015F5F2F
:1001E000040100001F010000C10700000000000022
:1001F00000000000000000000100000000000000FE
:1002000000000000000000000000000000000000EE
:1002100000000000807200004000000005070000A0
:08022000010000008507000049
:1002400008B500F065F900B108BD00F08FF900F0C5
:100250009BF90028F8D1BDE8084004F031BF00BF89
:10026000002310B582B01146CDE90033D0E9002358
:10027000402B4AD1138D84464FEA132EBEF1030F53
:100280003FD0BEF1010F10D0234C1068D4F80424E5
:10029000AEF10203CDE90002082B39D8DFE803F004
:1002A0000E3113181D22272C090000F05BF902B053
:1002B00010BD60466A4600F071F9F8E760466A468C
:1002C00000F04CF9F3E760466A4600F033F9EEE7D8
:1002D00060466A4600F026F9E9E760466A4600F0A3
:1002E0002DF9E4E760466A4600F02CF9DFE7604646
:1002F0006A4600F02BF9DAE760466A4600F02AF910
:10030000D5E7604600F012F9D1E76FF08000CEE744
:100310006FF08500CBE700BF201C00202DE9F04FD7
:100320000468A3B0002C40F0E3800546202221465B
:1003300002A806F095FE202221460AA806F090FEAB
:100340004022214612A806F08BFEEA6905F11C0B3B
:100350005B46042662B9032153F8042D4E1E32B9C0
:1003600036B1314653F8042D4E1E002AF8D00E4601
:10037000EA6A042705F12C0362B9032153F8042D1E
:100380004F1E32B937B1394653F8042D4F1E002A9B
:10039000F8D00F46002E00F0A680402300216868A8
:1003A00012AA06F0D0FE402840F09D8012AB012E2C
:1003B000CDE9023000F09A804FF00108534C0DF166
:1003C000080905F1100A01975AF8043FD4F800040F
:1003D000D91C21F003011A1D04EB000701EB000CEE
:1003E000C0F5806E60D871455ED8414668683A466F
:1003F000C4F800C406F0A7FE08F101084645C9F894
:100400000C0049F8087FDFD1019F002F73D0D4F88A
:1004100000040DF12808DC460BEB870A4146024632
:100420004FF00009AB4601905CF8040FC2F5806EF6
:10043000C31C10F1040F23F0030304EB020543D89F
:10044000734541D8D445C1E900504FF001091A4421
:1004500001F10801E8D1DBF808303146C4F8002486
:10046000C4F804340AAA3B4602A8FFF7F9FE5D4629
:10047000002681463146D8F80430686858F8082BC1
:10048000013606F07FFEB742F4D10025D4F80024EF
:1004900029461E48C4F8045406F0E2FDC4F800548E
:1004A000484623B0BDE8F08F002102461748C4F843
:1004B000041406F0D5FD6FF08C0900234846C4F8FB
:1004C000003423B0BDE8F08F0198B9F1000F02D0DD
:1004D0001046C4F80024002102460C48C4F8041455
:1004E00006F0BEFDE7E76FF08309D9E7074C8CE71C
:1004F0006FF08509D4E7AB683146C4F804340AAA22
:100500003B4602A8FFF7ACFE8146BEE7201C002058
:1005100008B528220021024806F0A2FD002008BDEF
:10052000282000206FF08500704700BF6FF0850025
:10053000704700BF6FF08500704700BF6FF0850007
:10054000704700BF6FF08500704700BF6FF08500F7
:10055000704700BF6FF08500704700BF6FF08500E7
:10056000704700BFD1E9000104F06CBD10B5044C28
:100570000F222046034906F02DFD204610BD00BF86
:1005800054200020D007000008B50121024804F0E3
:10059000CBFC002008BD00BF502000206FF085007C
:1005A000704700BF80B500AF01F09CFD00231846E6
:1005B00080BD80B582B000AF7860FFF7F3FF0346DF
:1005C00018460837BD4680BD80B5AEB000AF786034
:1005D0000023C7F8B4300023C7F8B03007F1940304
:1005E00000221A605A6007F18C0300221A605A60D8
:1005F0000023FB6407F150033C220021184606F05B
:100600002FFD0023FB6007F110033C220021184658
:1006100006F026FD0023BB600123C7F8A4300023A9
:10062000C7F8A0300423C7F8AC300423C7F8A830BB
:1006300004E0D7F8AC30013BC7F8AC30D7F8AC30A9
:10064000002B0ED0D7F8AC305A1E7B68043253F81A
:100650002230002BEDD004E0D7F8A830013BC7F8DA
:10066000A830D7F8A830002B08D0D7F8A8305A1EE9
:100670007B68083253F82230002BEDD0D7F8AC302D
:10068000002B07D0D7F8AC30022B03D8D7F8A8300E
:10069000012B01D9012371E07B68586807F108023A
:1006A0000423002106F04FFD0346C7F8A030D7F819
:1006B000A030042B02D06FF080035FE0D7F8AC309D
:1006C000012B2BD97B685B69C7F89C30D7F89C302D
:1006D000402B02D96FF0890350E07B6858687B6833
:1006E0005B6907F14C02012106F02DFD0346C7F8B6
:1006F000A030D7F8A030D7F89C209A4202D06FF0F3
:1007000080033BE007F14C03C7F89430D7F89C30E6
:10071000C7F8983007F19403C7F8B430D7F8A83079
:10072000002B12D07B681B6A402B02D96FF080032C
:1007300024E007F10C03C7F88C307B681B6AC7F80C
:10074000903007F18C03C7F8B030BB68D7F8B02001
:10075000D7F8B410184600F0FBFFC7F8A400D7F88C
:10076000B030002B08D07B685868D7F88C20D7F8B9
:100770009030002106F006FDD7F8A4301846B837AF
:10078000BD4680BD80B582B000AF78607B681B68D5
:10079000B3F57D7F04D040F2F532934205D009E0F5
:1007A0007868FFF706FF034606E07868FFF70CFF5E
:1007B000034601E06FF0850318460837BD4680BD4B
:1007C00080B400AF00231846BD4680BC70470000CF
:1007D0004D62656420544C5320332E362E31000078
:1007E0000843000001000000C94A0000A14A0000BF
:1007F000407C00008020002041000000407C000080
:10080000201C002000000000407C0000001C002094
:100810000000000084210020AA050000201C002008
:1008200018010000001C00200800000080B500AF87
:1008300003F0E0F900BF80BD80B588B000AF72B6AC
:1008400000BF314B314A9A60314B3B603B6883F3C8
:10085000098800BF2F4B7B607B6883F30A8800BF49
:100860002C4BBB60BB6883F30B8800BF2A4BFB603B
:10087000F96823A3D3E90023C1E9002300BF00F0F6
:100880003FFA264BFB6119E00023BB610EE0FB69D8
:100890001A68BB699B001A44FB695968BB699B00D5
:1008A0000B4412681A60BB690133BB61FB699B682A
:1008B000BA699A42EBD3FB690C33FB61FB69184AB6
:1008C0009342E1D3174B7B6114E000233B6109E0C5
:1008D0007B691A683B699B00134400221A603B69DC
:1008E00001333B617B695B683A699A42F0D37B696B
:1008F00008337B617B690C4A9342E6D304F0F8F835
:10090000A5EDF5FEA5EDF5FE00ED00E00000000010
:10091000F80B002000040020F80B0020F007000076
:1009200014080000140800002C080000EFF30880F1
:10093000EFF309812DE9F00F6B46724600F054FB8E
:1009400008B0FFF773FFFEE700BF000080B400AF00
:10095000BFF34F8F00BF064BDB6803F4E06204492E
:10096000044B1343CB60BFF34F8F00BF00BFFDE7C5
:1009700000ED00E00400FA0580B483B000AF144B32
:100980001B687B60134B1B683B607B68072B19D18E
:100990003B68023B032B13D801A252F823F000BF9F
:1009A000B1090000B5090000B9090000BD09000047
:1009B000012308E0002306E0002304E0002302E016
:1009C000002300E0002318460C37BD4680BC70476A
:1009D0003001FF003401FF0080B483B000AF144B3E
:1009E0001B687B60134B1B683B607B68072B19D12E
:1009F0003B68023B032B13D801A252F823F000BF3F
:100A0000110A0000150A0000190A00001D0A000062
:100A1000012308E0012306E0002304E0002302E0B4
:100A2000002300E0002318460C37BD4680BC704709
:100A30003001FF003401FF0080B483B000AF144BDD
:100A40001B687B60134B1B683B607B68072B19D1CD
:100A50003B68023B032B13D801A252F823F000BFDE
:100A6000710A0000750A0000790A00007D0A000082
:100A7000012308E0002306E0002304E0002302E055
:100A8000002300E0002318460C37BD4680BC7047A9
:100A90003001FF003401FF0080B483B000AF144B7D
:100AA0001B687B60134B1B683B607B68072B19D16D
:100AB0003B68023B032B13D801A252F823F000BF7E
:100AC000D10A0000D50A0000D90A0000DD0A0000A2
:100AD000012308E0012306E0012304E0012302E0F2
:100AE000012300E0002318460C37BD4680BC704748
:100AF0003001FF003401FF0080B483B000AF144B1D
:100B00001B687B60134B1B683B607B68072B19D10C
:100B10003B68023B032B13D801A252F823F000BF1D
:100B2000310B0000350B0000390B00003D0B0000BD
:100B3000012308E0002306E0002304E0002302E094
:100B4000002300E0002318460C37BD4680BC7047E8
:100B50003001FF003401FF0080B483B000AF144BBC
:100B60001B687B60134B1B683B607B68072B19D1AC
:100B70003B68023B032B13D801A252F823F000BFBD
:100B8000910B0000950B0000990B00009D0B0000DD
:100B9000012308E0002306E0002304E0002302E034
:100BA000002300E0002318460C37BD4680BC704788
:100BB0003001FF003401FF0080B483B000AF144B5C
:100BC0001B687B60134B1B683B607B68072B19D14C
:100BD0003B68023B032B13D801A252F823F000BF5D
:100BE000F10B0000F50B0000F90B0000FD0B0000FD
:100BF000012308E0002306E0002304E0002302E0D4
:100C0000002300E0002318460C37BD4680BC704727
:100C10003001FF003401FF0080B483B000AF144BFB
:100C20001B687B60134B1B683B607B68072B19D1EB
:100C30003B68023B032B13D801A252F823F000BFFC
:100C4000510C0000550C0000590C00005D0C000018
:100C5000012308E0012306E0012304E0012302E070
:100C6000012300E0002318460C37BD4680BC7047C6
:100C70003001FF003401FF0080B483B000AF144B9B
:100C80001B687B60134B1B683B607B68072B19D18B
:100C90003B68023B032B13D801A252F823F000BF9C
:100CA000B10C0000B50C0000B90C0000BD0C000038
:100CB000002308E0002306E0002304E0012302E013
:100CC000012300E0002318460C37BD4680BC704766
:100CD0003001FF003401FF0080B400AF064B074A2B
:100CE0001B68C2F84435044B044ADB69C2F84C3532
:100CF00000BFBD4680BC70470080FF000060005010
:100D000080B582B000AF854B1B68844A43F0020374
:100D10001360FFF751FF0346002B0CD0804B1B687C
:100D2000002B08D17E4B0D221A607E4B01221A60E7
:100D30007C4B00221A6000237B6000237B6011E063
:100D40004FF47F024FF47F017B68603351F83330FA
:100D500019467B686033DB0013445B680B607B687B
:100D600001337B607B681F2B08D84FF47F027B68C0
:100D7000603352F83330B3F1FF3FE1D1FFF7BCFEEF
:100D80000346002B05D0684B29221A60674B0322CB
:100D90001A60FFF7F1FD0346002B07D0644B654A4C
:100DA0001A604FF050230122C3F85825FFF714FEB4
:100DB0000346002B02D0604B00221A60FFF73CFE76
:100DC0000346002B11D04FF05023D3F8003403F02A
:100DD0000103002B09D04FF050230022C3F8142147
:100DE0004FF050230022C3F81821FFF755FE0346A9
:100DF000002B0DD04FF05023D3F8003403F0010343
:100E0000002B05D04FF050236FF00102C3F80024EF
:100E1000FFF7A2FE0346002B02D0434B65221A6067
:100E2000FFF7FAFE0346002B21D0444B1B68002B32
:100E30001DDA4FF050230322C3F818254FF050233A
:100E400001229A6000BF4FF05023D3F80431002BE9
:100E5000F9D04FF050230022C3F804214FF0502363
:100E60000122DA604FF050230122C3F81825FFF762
:100E700003FF0346002B1AD02B4B7E221A60304B07
:100E80007E221A602F4B7F221A602F4B00221A609D
:100E90002E4B00221A602E4B00221A602D4B00228E
:100EA0001A602D4B00221A602C4B00221A602C4B2A
:100EB0009B6A03F00103012B21D12A4B0122C3F8C5
:100EC000042500BF274BD3F80034002BFAD0244B65
:100ED0009B6A234A23F00103936200BF214BD3F89E
:100EE0000034002BFAD01F4B0022C3F8042500BFAA
:100EF0001C4BD3F80034002BFAD0FFF727FD1A4B18
:100F0000D3F88C30184A43F44063C2F88C30FFF7B2
:100F1000E3FE00BF0837BD4680BD00BFD0ED00E056
:100F2000204A00501C4900500C4700503C470050DC
:100F3000309503504400EFBE4C250350202403504D
:100F40003C49005018210050049E0350089E035055
:100F500010111050242100502C210050A0122050BC
:100F60000080FF000090035000ED00E080B584B0E9
:100F700000AF78600023FB737B681B68033B042B86
:100F800015D801A252F823F0B50F00009D0F000004
:100F9000A30F0000A90F0000B50F00000123FB7391
:100FA00009E00123FB7306E00123FB7303E0012347
:100FB000FB7300E000BFFB7B7968184600F0BBFDC7
:100FC00000BF1037BD4680BD80B582B000AF7860ED
:100FD0007C220449786805F0FDFF00BF0837BD4654
:100FE00080BD00BF9C28002080B586B000AFF860AF
:100FF000B9607A603B60394B7B61394B5B68C3F306
:1010000008027B691A60EFF303833B613A697B69ED
:101010005A657B697A685A607B69FA689A607B696D
:10102000BA68DA607B6958687B6999687B69DB68B4
:101030001A4600F058FD02467B691A617B6903F18C
:1010400014007B691B692022194605F0C3FF3B6829
:10105000002B06D07B69343320223968184605F00E
:10106000B9FF1F4B9A6A7B699A651D4BDA6A7B69E7
:10107000DA651B4B9A6B7B691A667B699B6D03F47F
:1010800000427B695A66164B5A6B7B699A667B698C
:101090009B6D03F080027B69DA66114A7B699B6D68
:1010A00093620F4A7B69DB6DD3620E4B5A697B6991
:1010B0001A670C4B9A697B695A677B691B6F03F04F
:1010C00040027B699A67074A7B691B6F53617869A5
:1010D000FFF74CFF00BF1837BD4680BD9C2800209D
:1010E00000ED00E0D0ED00E080B487B000AFF86024
:1010F000B9607A60FB681B687B617B69114A1A637F
:10110000BB68002B01D0042200E000227B68002B8A
:1011100001D0022300E000231A437B695A607B69F7
:101120005B6843F001027B695A60BFF34F8F00BFD9
:10113000BFF36F8F00BF002318461C37BD4680BC2D
:10114000704700BF04AAFF0080B582B000AF002343
:101150003B603B6843F001033B603B6843F00203A4
:101160003B603B6843F004033B6000237B600AE084
:10117000094A7B6852F823303968184600F0E0FDD0
:101180007B6801337B607B68002BF1D000BF00BF20
:101190000837BD4680BD00BFB420002080B582B0B6
:1011A00000AF00237B6000233B6032E01D4A3B68B8
:1011B00052F823304FF48471184600F0B1FD034615
:1011C000002B03D07B6843F004037B60154A3B6827
:1011D00052F823304FF48071184600F0A1FD034609
:1011E000002B03D07B6843F001037B600D4A3B6812
:1011F00052F823304FF48271184600F091FD0346F7
:10120000002B03D07B6843F002037B603B68013313
:101210003B603B68002BC9D07B6818460837BD4649
:1012200080BD00BFB420002080B582B000AF002395
:101230007B601DE0124A7B6852F823304FF48071C6
:10124000184600F058FD0E4A7B6852F823304FF4E0
:101250008271184600F04FFD094A7B6852F823302E
:101260004FF48471184600F046FD7B6801337B60C3
:101270007B68002BDED000BF00BF0837BD4680BDB5
:10128000B420002080B584B002AF00237B6017E05B
:101290007B68DBB21946174800F042FE034683F034
:1012A0000103DBB2002B08D07B68D9B20023009386
:1012B000072301220F4800F095FD7B6801337B6016
:1012C0007B683F2BE4D900233B600BE03B68D9B23D
:1012D0000023009307230122064800F0B2FD3B687B
:1012E00001333B603B683F2BF0D900BF00BF08379C
:1012F000BD4680BD0030005080B58AB002AFF860B6
:10130000B9603B601346FB71FB689B0BBB61BB681C
:101310009B0B7B61BB69FB610CE0FB69D9B2FA797D
:1013200097F8283000933B68074800F05BFDFB69A5
:101330000133FB61FA697B699A42EED900BF00BFB5
:101340002037BD4680BD00BF0030005080B58AB058
:1013500002AFF860B9603B601346FB71FB6803F1B4
:1013600060435B0BBB61BB6803F160435B0B7B615C
:10137000BB69FB610CE0FB69D9B2FA7997F82830B8
:1013800000933B68074800F05CFDFB690133FB619B
:10139000FA697B699A42EED900BF00BF2037BD468B
:1013A00080BD00BF0030005080B586B002AF7860CD
:1013B00039603A687B68D31A0133FB607B68C3F3FA
:1013C0000D03C3F58043BB60FA68BB689A4200D93D
:1013D000FEE77A68BB681344C3F30D03002B00D00B
:1013E000FEE7BB685A1EBB681340002B00D0FEE727
:1013F000BB681F2B03D9BB68B3F5805F00D9FEE73C
:10140000BB68B3FA83F3DBB2C3F11B03DAB27B68C8
:101410009B0BDBB2012100910021034800F09EFCF0
:1014200000BF1037BD4680BD0030005080B586B08B
:1014300002AF78600B46FB707B681B0BFB730B4A9B
:10144000FB7B03F5007352F8233003F00303002BFA
:1014500000D1FEE7F97BFB780093012301220348CA
:1014600000F01EFD00BF1037BD4680BD00300050AB
:1014700080B586B002AF78600B46FB707B681B0BB3
:10148000FB730B4AFB7B03F5007352F8233003F028
:101490000303012B00D1FEE7F97BFB7800930023C7
:1014A0000022034800F0FCFC00BF1037BD4680BDA1
:1014B0000030005080B500AFFFF770FE0346034ACE
:1014C0001360024800F09BFD00BF80BD602F00202C
:1014D00080B582B000AF78600C220449786805F0CE
:1014E00079FD00BF0837BD4680BD00BF602F0020DA
:1014F00080B483B000AF0C4BDB687B607B689BB231
:101500007B607B6823F008037B607B6843F0BF63EC
:1015100043F400337B60044A7B68D36000BF0C3720
:10152000BD4680BC704700BF00ED00E080B483B0D2
:1015300000AF78603960064A7B681360054A3B68F3
:101540001360002318460C37BD4680BC704700BFAF
:101550006C2F0020702F002090B589B000AF78600C
:10156000544B1B687A6852695A62524B1B687A68FE
:1015700092699A624F4B1B687A68D269DA624D4B66
:101580001B687A68126A1A634A4B1B687A68526A47
:101590005A63484B1B687A68926A9A63454B1B688A
:1015A0007A68D26ADA63434B1B687A68126B1A64F2
:1015B000404B1B687A68526B5A603E4B1B687A68D6
:1015C000926B9A603B4B1B687A68D26BDA60394B3E
:1015D0001B687A68126C1A61364B1B687A68526C09
:1015E0005A61344B1B687A68926C9A61314B1B6864
:1015F0007A68D26CDA612F4B1B687A68126D1A62B6
:101600002C4B1B687A68926D5A652A4B1B687A6866
:10161000D26D9A65274B1B687A68126FDA65254B85
:101620001B687A68126E1A66224B1B687A68926E83
:101630005A66204B1B687A68526F9A661D4B1B686E
:10164000EFF388827A617A695A641A4B1B68EFF368
:101650008982BA61BA699A64164B1B687A685268C3
:10166000DA64144B1B68EFF39482FA61FA691A6525
:10167000104B1B687A6812681A6707F1080318464E
:10168000FFF726FF0B4B1B68BA68DA66094B1B682D
:1016900001221A70084B1B681C466408640020462F
:1016A00021462246234605F0BBFD00BF2437BD4638
:1016B00090BD00BF6C2F0020702F002080B5A0B01F
:1016C00000AF3B461846FFF77FFC7B68002B14BF3A
:1016D0000123002387F87F3097F87F3083F00103E0
:1016E000DBB2002B15D17B68184600F0E9FC0346FD
:1016F000002B0ED13B68052B01D0072B0BD100BF6F
:10170000074B1B68002B07D03B461846FFF724FF0A
:1017100002E000BF00E000BF8037BD4680BD00BFD3
:10172000702F002080B400AFBFF34F8F00BF064B77
:10173000DB6803F4E0620449044B1343CB60BFF35E
:101740004F8F00BF00BFFDE700ED00E00400FA0589
:1017500080B584B000AFF860B9607A60FB68042B94
:1017600024D801A252F823F07D1700008917000049
:1017700095170000AD170000A11700007968B86840
:1017800000F046F8034612E07968B86800F0B2F855
:1017900003460CE07968B86800F0A5FD034606E052
:1017A0007968B86800F0A2FC034600E003231846FD
:1017B0001037BD4680BD00BF80B584B000AF7860F3
:1017C0007B681B68184600F007FD034683F00103A1
:1017D000DBB2002B00D0FEE70023FB60786800F04E
:1017E00029FD0346002B02D0012B03D005E0064B58
:1017F000FB6003E0054BFB6000E0FEE7FB6818467A
:101800001037BD4680BD00BF00258450002884509D
:1018100080B58CB000AF7860396001237B6206230D
:101820003B627B685B680C2B03D13B685B68042BD5
:1018300001D0022358E07B681B68FB613B681B6892
:10184000BB61BB694FF0FF321A600223FB62FB6988
:101850001B68002B03D0FB699B68002B01D102237E
:1018600042E0FB691B681946FB699A683B6A786A23
:1018700002F002FE78617B69002B01D0022333E085
:101880000023BB622CE01A4ABB6A52F833303B613A
:10189000174ABB6ADB0013445B68FB60FB695B684B
:1018A0003A699A4219D8FB695A68FB699B681A44DD
:1018B0003969FB680B449A420FD8FB691868FB69C9
:1018C0005B681946FB699B681A4605F083FBBB6998
:1018D00000221A600023FB6205E0BB6A0133BB6291
:1018E000BB6A042BCFD9FB6A18463037BD4680BD92
:1018F0005849000080B48FB000AF786039607B68D1
:101900005B680C2B03D13B685B68042B01D002237E
:1019100084E07B681B687B623B681B683B623B6AB8
:1019200001221A6002237B6300233B6372E03E4A7C
:101930003B6B1B0113441B68FB613B4A3B6B1B0168
:10194000134404331B68BB6100237B617B6A1B6803
:10195000FA699A425BD13B6A02221A607B6A9B68F1
:10196000BA699A4253D17B69002B36D02E4A3B6B21
:101970001B01134408331B68002B2ED0002387F86B
:101980002F300023BB6219E0274A3B6B1B01134435
:1019900008331A68BB6A9B0013441B683B617B6A6F
:1019A0005A687B6A9B6813403A699A4203D10123C3
:1019B00087F82F3006E0BB6A0133BB62BB6A7A69E5
:1019C0009A42E1D897F82F3083F00103DBB2002B65
:1019D00003D03B6A03221A601FE0FB691B68FB60AF
:1019E0007B6A9B68DB43FA681340FB607B6A5A683A
:1019F0007B6A9B681340FA681343FB60FB69FA68D3
:101A00001A603B6A00221A6000237B6305E03B6B8F
:101A100001333B633B6B002B89D07B6B18463C3713
:101A2000BD4680BC704700BF8049000080B483B0D1
:101A300000AF78607B689B0903F00103002B14BFA3
:101A400001230023DBB218460C37BD4680BC70472B
:101A500080B483B000AF78607B6803F00803002B8C
:101A600014BF01230023DBB218460C37BD4680BCEF
:101A7000704780B584B000AF78607868FFF7D6FF14
:101A80000346002B11D07B6803F00403002B07D022
:101A90007868FFF7DDFF0346002B01D0012300E04B
:101AA000002303F00103DBB219E0EFF39483BB6082
:101AB000BB6803F00203002B14BF01230023FB7358
:101AC000FB7B002B07D07868FFF7C2FF0346002B93
:101AD00001D0012300E0002303F00103DBB218462C
:101AE0001037BD4680BD80B588B000AFF860B960E2
:101AF0007A60F868FFF7BDFF0346FB77F868FFF7E9
:101B000095FF0346002B06D0FB7F002B01D07B689E
:101B10000DE0BB680BE0FB7F002B04D0EFF3898363
:101B2000BB61BB6903E0EFF388837B617B69184687
:101B30002037BD4680BD80B582B000AF0346396016
:101B4000FB713B685B681846FFF770FF3B685B689A
:101B50001846FFF77DFF00BF0837BD4680BD80B443
:101B600089B000AF786039607B681B68FB61002337
:101B7000FB763B685B6803F01F03002B01D0012359
:101B800054E0FB691B681B0ADBB27B613B681B6886
:101B90007A699A4201D8012348E0FB695B683B619E
:101BA000FB6900225A603B681B68DAB2FB699A60E5
:101BB0003B685B6823F01F03FB603B689B7CDB009A
:101BC00003F01803FA681343FB603B685B7C5B001F
:101BD00003F00603FA681343FB603B681B7C03F0C9
:101BE0000103FA681343FB60FB69FA68DA603B683B
:101BF0009B68013B23F01F03BB603B68DB685B0015
:101C000003F00E03BA681343BB60BB6843F00103E3
:101C1000BB60FB69BA681A61FB693A695A60BFF335
:101C20004F8F00BFBFF36F8F00BFFB7E1846243776
:101C3000BD4680BC704780B487B000AF7860396023
:101C40007B681B687B610023FB747B695B68FB60BE
:101C50007B6900225A603B68DAB27B699A607B69D3
:101C60000022DA607B6900221A617B69FA685A6097
:101C7000FB7C18461C37BD4680BC704780B586B0DB
:101C800000AF78607B681B683B613B691B681B0A7F
:101C9000DBB2FB6000237B6106E079697868FFF7BF
:101CA000CAFF7B6901337B617A69FB689A42F4D38E
:101CB000002318461837BD4680BD80B483B000AFFE
:101CC00078607B681B6800BF0C37BD4680BC7047DE
:101CD00080B483B000AF786039607A683B681344A1
:101CE0001B68002B14BF01230023DBB218460C37FE
:101CF000BD4680BC704780B582B000AF78600B46AF
:101D00007B807B887A68134400221A607B887A681B
:101D100013441846FFF7D1FF00BF0837BD4680BD0A
:101D200080B582B000AF78600B467B807B88194617
:101D30007868FFF7CDFF034618460837BD4680BDDB
:101D400080B483B000AF786039607B683A68C3F8CC
:101D5000042300BF0C37BD4680BC704780B483B0FD
:101D600000AF7860084611461A460346FB700B46E2
:101D7000BB7013467B70FA787B68A03253F8323020
:101D800003F48073002B00D0FEE7FB787A68A03361
:101D9000DB0013445B6803F48073002B00D0FEE784
:101DA0007B783A7C002A02D04FF4807100E0002159
:101DB000FA7819437B68A03243F83210BA783B7C3A
:101DC000002B02D04FF4807100E00021FB780A4321
:101DD0007968A033DB000B445A6000BF0C37BD4666
:101DE00080BC704780B485B000AFF8607B600B4664
:101DF000FB721346BB72FA7AFB6802F5C07253F8A5
:101E0000223003F48073002B00D0FEE7BB7A002B56
:101E100001D0102200E000227B6813433A7E002AA2
:101E200002D04FF4807100E00021FA7A1943FB6878
:101E300002F5C07243F8221000BF1437BD4680BCC3
:101E4000704780B485B000AFF8607B600B46FB72D2
:101E50001346BB72FA7AFB6802F5E07253F822303F
:101E600003F48073002B00D0FEE7BB7A002B01D077
:101E7000102200E000227B6813433A7E002A02D041
:101E80004FF4807100E00021FA7A1943FB6802F5F3
:101E9000E07243F8221000BF1437BD4680BC704783
:101EA00080B485B000AFF860B96011461A460B46A1
:101EB000FB711346BB71FB68BA6802F5007253F8F8
:101EC0002230002B00DBFEE7FB68BA6802F50072E7
:101ED00053F8223003F48073002B00D0FEE7FB7927
:101EE000002B01D0102200E00022BB79002B01D092
:101EF000202300E0002313433A7E002A02D04FF44F
:101F0000807200E0002242EA0301FB68BA6802F531
:101F1000007243F8221000BF1437BD4680BC7047E2
:101F200080B485B000AF78600B46FB700023FB7374
:101F3000FB7B18461437BD4680BC704780B483B025
:101F400000AF78607B689B0318460C37BD4680BCA9
:101F5000704780B483B000AF78607B6801339B0327
:101F6000013B18460C37BD4680BC704780B400AFBB
:101F700000231846BD4680BC704780B400AF3F23A5
:101F80001846BD4680BC704780B400AF4FF4804314
:101F90001846BD4680BC704780B483B000AF7860FF
:101FA0007B6803F57F43C0335B0318460C37BD469F
:101FB00080BC704780B483B000AF78607B6803F565
:101FC0007F43C1335B03013B18460C37BD4680BCE1
:101FD000704780B400AF40231846BD4680BC7047B0
:101FE00080B400AF7F231846BD4680BC704780B4E4
:101FF00000AF4FF400531846BD4680BC704780B414
:1020000083B000AF786000BF0C37BD4680BC70471E
:1020100080B582B000AF00237B6003F0CDF878601C
:102020007B68002B02D045F2235300E000231846C2
:102030000837BD4680BD80B400AF00BFBD4680BC40
:10204000704780B582B000AF02F0B7FA78607B6865
:10205000002B01D07B680CE0FFF7DAFF78607B682B
:10206000002B01D07B6804E0FFF742FAFFF7E3FFA3
:10207000002318460837BD4680BD80B400AF00235A
:102080001846BD4680BC704780B500AFFFF716FB11
:1020900072B600BF20BFFDE780B400AF0023184632
:1020A000BD4680BC704780B400AF00231846BD46D3
:1020B00080BC704780B400AF00BFBD4680BC704795
:1020C00080B483B000AF78607B689B0903F00103A4
:1020D000002B14BF01230023DBB218460C37BD468A
:1020E00080BC704780B500AFFFF71CFB80B588B09F
:1020F00000AF786039602623FB612323BB61012395
:102100007B617B685B68082B03D13B685B68042BB1
:1021100001D002233CE07B681B683B613B681B6885
:10212000FB60FB684FF0FF321A603B691B68002BB5
:1021300003D03B695B68002B01D1022328E03B6997
:102140001B681946FB697422786902F095F9B8603A
:10215000BB68002B01D002231AE03B695B6819467B
:10216000BB690422786902F087F9B860BB68002B6C
:1021700001D002230CE03B691A683B695B68194691
:102180001046FFF7D3F903461A46FB681A6000238E
:1021900018462037BD4680BD80B584B000AF78605A
:1021A0000B46FB703B1D1846FFF706FBF8607A688C
:1021B000FB68803253F8223023F0E043BB60FB78A9
:1021C00019077A68BB681943FB68803243F822100C
:1021D00000BF1037BD4680BD80B485B000AF7860C9
:1021E0007B685B09BB600023FB60BB68002B03D0EE
:1021F000BB68012B04D007E04FF0FF33FB6005E024
:102200004FF6FF73FB6001E000230EE07B6803F0F4
:102210001F037B60FA687B6822FA03F303F0010373
:10222000002B14BF01230023DBB218461437BD4630
:1022300080BC704780B485B000AF78607B681B6855
:10224000FB60FB6803F01F027B681A60FB685B0998
:1022500018461437BD4680BC704780B483B000AFC9
:1022600078607B68072B8CBF01230023DBB2002B37
:102270000ED18B227B6822FA03F303F00103002BBB
:1022800014BF01230023DBB2002B01D0012300E0A7
:10229000002318460C37BD4680BC704780B582B01D
:1022A00000AF78607B685B681846FFF795FF0346D0
:1022B000002B12D07B689B681846FFF7CEFF0346C1
:1022C000002B0AD07B685A687B689B68DBB2194692
:1022D0001046FFF761FF002301E04FF0FF3318467F
:1022E0000837BD4680BD80B584B000AF78603960E6
:1022F0007B685B680C2B03D13B685B68042B01D0C7
:10230000022317E07B681B68FB603B681B68BB60AF
:10231000BB684FF0FF321A60FB681B68002B08D1C6
:10232000F868FFF7BBFF0246BB681A6000BF0023D6
:1023300000E0032318461037BD4680BD80B582B04B
:1023400000AF43F65C237B604FF0FF333B601A48DD
:1023500001F0A1FF38603B68002B02D06FF0FC0356
:1023600026E0FFF76EFE38603B68002B02D06FF06E
:10237000FC031DE0FFF781FE78607B68002B02D034
:102380006FF0FC0314E0FFF787FE0346002B08D034
:10239000FFF789FE78607B68002B02D06FF0FC03AA
:1023A00006E0FFF787FE01F070FF01F085FB0023D8
:1023B00018460837BD4680BD1829002080B582B078
:1023C00000AF4FF0FF337B600A4B184601F018FC5A
:1023D000FFF7B4FF78607B68002B01D001F00AFCA6
:1023E00000F0EEFE00F056F9002318460837BD460F
:1023F00080BD00BF0004002080B485B000AF7860CD
:102400000023FB60134B5B68BB601AE0BB681B6872
:102410005B687A689A420FD1FB68002B0AD0BB68D0
:102420009A68FB689A600B4B5A68BB689A60094AC5
:10243000BB685360BB6808E0BB68FB60FB689B68D7
:10244000BB60BB68002BE1D1002318461437BD46A2
:1024500080BC70471C29002080B588B000AFF860B0
:10246000B9601346FB710023BB61BB68002B00D130
:10247000FEE7FB79002B09D0BB681B689B6803F45F
:102480008073002B2DD16FF0FC032BE0174B1B68E2
:10249000BB61BB69002B01D101F0ACFBBB691B68C0
:1024A00038337B610023FB610AE0FB699B007A699A
:1024B00013441B68FA689A4209D0FB690133FB6137
:1024C000BB691B689A69FB699A42EED800E000BFBD
:1024D000BB691B689A69FB699A4202D16FF0FC03E1
:1024E00000E0002318462037BD4680BDAC290020FF
:1024F00080B58CB000AFF860B9607A6000237B6172
:1025000000F0ACF8034687F82F30FB68002B00D1B1
:10251000FEE7BB68002B02D16FF080034FE0BB6881
:1025200003F08043002B48D0BB6803F01F03BB625D
:10253000254ABB6A52F823307B627B6A002B02D1AA
:102540006FF080033BE07B6A1B685B683B6297F837
:102550002F301A46796A386AFFF77EFF0346002B50
:1025600002D06FF081032AE0BB681B12DBB2FB6173
:10257000F969786A01F06CFB0346002B02D06FF01A
:1025800080031CE001F04BFB03467B6101F062FE1F
:10259000B8617B69184601F04FFBBB69002B02D183
:1025A0006FF082030BE07A68796AB86900F00EF880
:1025B000FB68BA691A60002301E06FF080031846D7
:1025C0003037BD4680BD00BF2429002080B584B0CF
:1025D00000AFF860B9607A60FB68002B00D1FEE7BD
:1025E000BB68002B00D1FEE7FB680C3330220021D2
:1025F000184604F035FDFB68BA689A60094B1A6802
:10260000FB685A60FB687A685A61F86801F0FDFD62
:102610000246FB681A61FB6800221A6000BF10378F
:10262000BD4680BDAC29002080B483B000AF0A4B0A
:102630001B687B607B68002B07D07B681B68002BC6
:1026400003D07B681B685B6800E0002318460C37EA
:10265000BD4680BC704700BFAC29002080B582B069
:1026600000AF0B4B1B687B607B68002B01D101F036
:10267000C1FA7B681B689B6803F44063002B14BF9E
:1026800001230023DBB218460837BD4680BD00BFDA
:10269000AC29002080B584B000AF4FF0FF33FB6061
:1026A00001F0D2FD194B00225A60194B00225A60EA
:1026B00000F010FD154800F073F8B860BB68002BFF
:1026C0001CD08023134A1249B86801F069FB786076
:1026D000B86801F009FCBB681A68BB680433194686
:1026E000104600F0B9FDF860FB68002B01D001F046
:1026F00081FA7968B86800F039FCDBE700BF00F0C8
:1027000063FC034618461037BD4680BDA42900204F
:102710001C2900202429002080B582B000AF0A4B7C
:102720001B687B60084B1B682033074A1360064B0D
:102730001A68064B1B689A4201D901F05BFA7B6864
:1027400018460837BD4680BD882000208C20002018
:1027500080B584B000AF78600F4B1B68FB607B686E
:10276000002B01D1002313E07A6813465B00134469
:102770009B001A46084B1B681344074A1360064B1C
:102780001A68064B1B689A4201D901F033FAFB68BC
:1027900018461037BD4680BD9020002094200020B0
:1027A00080B586B000AF78607B68002B01D101F066
:1027B00021FA624B1B6813F1310F07D85F4B1B687E
:1027C00003F130025E4B1B689A4201D30023B1E053
:1027D0005A4B1B683B61594B1B68D9433B6998694D
:1027E0003B69DA6913469B00134418443B691A6A33
:1027F00013465B00134418443B695A6A1346DB00D6
:102800009B1A03440E339B0099421CD33B69996980
:102810003B69DA6913469B00134419443B691A6A01
:1028200013465B00134419443B695A6A1346DB00A4
:102830009B1A0B440E339A00404B1B681A44404BC2
:102840001B689A4201D901F0D5F93B691B681B0C42
:102850001B043C4A934201D001F0CCF93B691B6850
:102860009BB2B3F5817F01D301F0C4F93B695B688A
:10287000002B01DA01F0BEF93B699A6A3B69DB6A19
:102880009A4201DD01F0B6F93B699B6803F44063AD
:10289000002B26D07B685B687B611FE07B691B682F
:1028A0009B6803F44063002B14D07B691B689B6A10
:1028B000FB607B691B68DB6ABB603B69DB6AFA68AB
:1028C0009A4208DC3B699B6ABA689A4203DB01F0D2
:1028D00091F900E000BF7B69DB697B617B69002BBC
:1028E000DCD1FFF719FF78617B693A691A603B69AF
:1028F00099693B69DA6913469B00134419443B69A3
:102900001A6A13465B00134419443B695A6A13461A
:10291000DB009B1A0B440E339A00084B1B681344D0
:10292000064A13607B685A687B69DA617B687A695A
:102930005A607B6918461837BD4680BD802000204C
:102940008420002000005F5F80B59CB000AFF8607D
:10295000B9607A603B604FF0FF333B6600237B66D3
:10296000BB681B0E03F00703FB65BB681B0C03F081
:102970000703BB65984B1B687B65BB681BB23B6557
:102980003B6D002B02DA6FF0800351E1FB683A6D7A
:10299000DA60BB681BB21A46BB68934201D10023C0
:1029A00046E1BB6DDB43FA6D9A4204D8FA6DBB6D0C
:1029B0001344042B02D96FF0800339E1BB68002B6C
:1029C00001DA20237B667B6D58687968FB6DDA003D
:1029D0007B6E43F0020301F04FFD38663B6E002B27
:1029E00002D06FF0800323E107F1300320220021A1
:1029F000184604F035FBFB6DDA0007F13003796807
:102A0000184604F0E7FA7B6D58683968BB6DDA0048
:102A10007B6E43F0060301F02FFD38663B6E002B02
:102A200002D06FF0800303E107F1100320220021A0
:102A3000184604F015FBBB6DDA0007F11003396886
:102A4000184604F0C7FA0023FB663AE0FB6E013338
:102A5000BB662FE0BB6EDB0070333B4453F8402C69
:102A6000BB6EDB0070333B4453F83C3C1A44FB6EB6
:102A7000DB0070333B4453F8403C9A4217D9BB6E9D
:102A8000DB0070333B4453F8402CFB6EDB007033AB
:102A90003B4453F8401CFB6EDB0070333B4453F85F
:102AA0003C3C0B449A4202D26FF08003C0E0BB6E04
:102AB0000133BB66BB6EFA6D9A42CBD8FB6E013315
:102AC000FB66FB6E01331A46FB6D9342BED8BB68B2
:102AD00003F00063002B01D020237B66FB681C33CE
:102AE00010220021184604F0BBFAFB682C33102298
:102AF0000021184604F0B4FA0023FB663CE07B6D2D
:102B00005868FB6EDB0070333B4453F8403C194679
:102B1000FB6EDB0070333B4453F83C2C7B6E43F080
:102B2000020301F0A9FC38663B6E002B02D06FF067
:102B300080037DE0FB6EDB0070333B4453F83C2C9C
:102B4000F968FB6E06339B000B445A60FB6EDB009A
:102B500070333B4453F8402CF968FB6E0E339B00F6
:102B60000B445A60FA68FB6E12339B001344002238
:102B70005A60FB6E0133FB66FB6EFA6D9A42BED85B
:102B80007B6E202B09D1BB68002B06DBBB6803F4EE
:102B90000023002B01D100237B660023FB663FE06E
:102BA0007B6D5868FB6EDB0070333B4453F8603C30
:102BB0001946FB6EDB0070333B4453F85C2C7B6E94
:102BC00043F0060301F058FC38663B6E002B05D03D
:102BD0006FF080032CE000BFAC290020FB6EDB000F
:102BE00070333B4453F85C2CF968FB6E0A339B004E
:102BF0000B445A60FB6EDB0070333B4453F8602C8F
:102C0000F968FB6E16339B000B445A60FA68FB6E42
:102C10001A339B00134400225A60FB6E0133FB669B
:102C2000FB6EBA6D9A42BBD8FB683A68DA6700233C
:102C300018467037BD4680BD80B58AB000AFF860D9
:102C4000B9607A603B6000237B62324B1B683B6259
:102C50004FF0FF33FB61F86801F02CF878627B6A73
:102C6000002B01D100F0C6FF7B6ADB68002B01DA84
:102C700000F0C0FFBB68032B01D900F0BBFF7A6AEC
:102C8000BB6806339B0013445A68796ABB681233E9
:102C90009B000B445B68D31ABB61BB69002B01D15D
:102CA000002333E03B6A5868796806233A6801F0EC
:102CB000E3FBF861FB69002B01D000F09BFFBA69D0
:102CC0003B68934228BF13467B617A6ABB680E3328
:102CD0009B0013445A68796ABB6812339B000B440B
:102CE0005B6813447A691946786804F073F97A6A64
:102CF000BB6812339B0013445A687B691A44796A93
:102D0000BB6812339B000B445A607B691846283716
:102D1000BD4680BDAC29002080B588B000AFF8600A
:102D2000B9607A603B600023FB612F4B1B68BB617D
:102D30004FF0FF337B61F86800F0BCFFF861FB697E
:102D4000002B01D100F056FFFB69DB68002B01DA94
:102D500000F050FFBB68032B01D900F04BFFFA696C
:102D6000BB680A339B0013445A68F969BB681A337D
:102D70009B000B445B68D31A3A689A4201D900F071
:102D800039FFBB695868796802233A6801F074FB1F
:102D900078617B69002B01D000F02CFFFA69BB68D9
:102DA00016339B0013445A68F969BB681A339B00B9
:102DB0000B445B6813443A687968184604F00AF9D2
:102DC000FA69BB681A339B0013445A683B681A447B
:102DD000F969BB681A339B000B445A6000231846FC
:102DE0002037BD4680BD00BFAC29002080B483B031
:102DF00000AF78607B6803F00703002B00D0FEE78C
:102E00007B68083B7B607B68064A1A607B680433FA
:102E10001A46044B13607B6818460C37BD4680BCCD
:102E2000704700BFA5EDF5FE80B584B000AF7860B7
:102E30007B68002B0DD07B689B68002B09D07B68DA
:102E40009B681B68002B04D07B689B685B68002B29
:102E500002D16FF080032FE07B689B685B68FB60AA
:102E6000FB687A689A61164AFB681360FB685B69C5
:102E7000002B13D1FB681B68DB68002B0BD0FB68B1
:102E80001B68DB6800209847B860BB68002B02DA3B
:102E90006FF0800310E0FB6801225A617B689B6839
:102EA0001B681B691A467B680C3318469047B8604C
:102EB0007B6801221A60BB6818461037BD4680BD8A
:102EC000AC29002080B483B000AF786039607B68A3
:102ED0005B68044A13603B6818460C37BD4680BCEB
:102EE000704700BFAC29002080B586B000AF786085
:102EF0001C4B1B683B611C4B5B687B6127E07B695B
:102F00001B689B6803F40073002B1AD17B695B6913
:102F1000012B18D0134A7B6913607B691B68DB683F
:102F2000002B0AD07B691B68DB6800209847F8609B
:102F3000FB68002B01DA00F05DFE7B6901225A611B
:102F400002E000BF00E000BF7B69DB697B617B6959
:102F5000002BD4D1034A3B6913607B6818461837AD
:102F6000BD4680BDAC290020A429002080B584B0D6
:102F700000AF786039607B681B68FB607B6800226B
:102F80009A617B6800225A61FB689B6803F4406386
:102F9000002B12D0FB689B6803F40063002B09D060
:102FA0007B681B689A6A7B681B68DB6A1946104657
:102FB00000F04CF8034A7B68136000BF1037BD4631
:102FC00080BD00BFAC29002080B586B000AF1C4B8F
:102FD0001B687B617B69002B00D1FEE77B691B6866
:102FE0003B613B699B6803F44063002B01D100F017
:102FF00001FE00F0AFFA0346FB603B6930331A680C
:103000003B691B69134423F007031846FFF7EEFEE4
:10301000B8603B6930331B68073323F007037B60DC
:103020007968B86801F089F806493B69DA68064BA7
:10303000F86801F002FC002318461837BD4680BD31
:10304000AC290020E92E0000F80B002080B483B0EA
:1030500000AF78603960054A7B681360034A3B68BB
:10306000536000BF0C37BD4680BC7047B0290020BC
:1030700080B487B000AF786039603B68002B02D124
:103080004FF0FF331EE07B68002B02DB4FF0FF3375
:1030900018E00F4B1B687B610D4B5B683B617A69E5
:1030A0003B69D31A013BFB607A68FB689A4202DAFB
:1030B0004FF0FF3306E03B695A1C7B681A443B68BB
:1030C0001A60002318461C37BD4680BC704700BFFD
:1030D000B029002090B583B000AF084C00F024FA6E
:1030E0000346A36000F02AFA03467B607B6883F303
:1030F000888800BF00BF0C37BD4690BD00ED02E0E0
:1031000080B483B000AF03463960FB7197F9073094
:10311000002B0ADB3B68DAB20C4997F90730520101
:10312000D2B20B4483F800230AE03B68DAB20849C4
:10313000FB7903F00F03043B5201D2B20B441A7621
:1031400000BF0C37BD4680BC704700BF00E100E007
:1031500000ED00E0EFF308807146EFF30982EFF332
:103160000B830CB406B401F099FB8646009900F07D
:10317000080001F00801401A02DC12DB04B07047BD
:103180001EF020031CBF2DE9F00FBDF1080D0B4C04
:10319000254626462746A046A146A246A34630B469
:1031A000704704B030BC1EF020031CBF1DF1080D99
:1031B000BDE8F00F04B0704700BF0000A5EDF5FEBC
:1031C00080B584B000AF174BFB60FB68DB68BB6069
:1031D000BB68DB431B0C1B047B60BB689AB27B683B
:1031E000134343F48042FB68DA6000216FF00B0068
:1031F000FFF786FF00216FF00A00FFF781FF002133
:103200006FF00800FFF77CFF00216FF00400FFF76C
:1032100077FF03216FF00100FFF772FF00BF103747
:10322000BD4680BD00ED00E0009A0A4B9A420FD1E6
:1032300001229043014602460346044605460646DF
:103240000746804681468246834684468646044732
:10325000FEE700BFA5EDF5FE80B590B000AF786049
:1032600039607B68002B02D03B68002B02D143F60B
:10327000DA33AFE000233B63012387F82F307B680C
:103280009B6803F44063002B14BF0123002387F8DD
:103290002E3097F82F305B0003F002033B6397F862
:1032A0002E303A6B13433B633B683A6B1A60002342
:1032B000FB6388E07B689B699A007B68D1187B6818
:1032C000DA6913469B0013449B000B443833BB62FE
:1032D000FA6B13465B0013449B001A46BB6A134407
:1032E0009B6803F00803002B67D0002387F83B306E
:1032F00000237B6315E0394A7B6B52F82310FA6B8D
:1033000013465B0013449B001A46BB6A13441B68B8
:10331000994203D1012387F83B3005E07B6B0133F1
:103320007B637B6B002BE6D097F83B3083F0010387
:10333000DBB2002B02D043F6DA334BE0FA6B1346D4
:103340005B0013449B001A46BB6A13441B687B62F4
:103350007B6A1B68002B32D07B6A1B6801211846F0
:10336000FEF764F897F82F3083F00103DBB2002BEF
:1033700026D01B4B1B685A1C19490A60FB607B6AEC
:103380001B683B617B6A5B687B610023BB61012337
:103390007B770023BB7701233B7707F10C031946AA
:1033A0001048FEF7DCFB034687F8233097F82330FC
:1033B000002B05D043F6DA330CE000BF00E000BF7D
:1033C000FB6B0133FB637B681B6AFA6B9A42FFF469
:1033D00071AF002318464037BD4680BD90490000BC
:1033E000B82900209820002080B586B000AF45485D
:1033F000FEF744FC444B1B685A1C43490A603B607F
:10340000424BDB687B60414B1B69BB600123FB6067
:1034100003237B740023BB7400233B743B46194693
:103420003848FEF79CFB0346FB75FB7D002B02D062
:1034300043F6DA3362E0344B1B685A1C32490A60A7
:103440003B60334B7B60334BBB600123FB6003234A
:103450007B740023BB7400233B743B461946294808
:10346000FEF77DFB0346FB75FB7D002B02D043F688
:10347000DA3343E0244B1B685A1C23490A603B6043
:10348000254B7B60254BBB600123FB6003237B74D2
:103490000023BB7400233B743B4619461948FEF7D2
:1034A0005EFB0346FB75FB7D002B02D043F6DA334F
:1034B00024E0154B1B685A1C13490A603B60184BEB
:1034C0007B60184BBB600223FB6001237B740023ED
:1034D000BB7401233B743B4619460A48FEF73FFB89
:1034E0000346FB75FB7D002B02D043F6DA3305E083
:1034F000012201210348FDF7F7FD00231846183784
:10350000BD4680BD98200020B829002094490000C5
:10351000604A000020740000E0070000E00700009F
:10352000001C0020201C002080B400AF024B1B6850
:103530001846BD4680BC70479449000080B400AF77
:10354000034B1B681B681846BD4680BC704700BF14
:103550009449000080B400AF034B1B6804331B6820
:103560001846BD4680BC70479449000080B483B0C3
:1035700000AF0346FB7197F90730002B0CDBFB799A
:1035800003F01F02074997F907305B09012000FA91
:1035900002F2603341F8232000BF0C37BD4680BCE7
:1035A000704700BF00E100E080B500AFFDF782FF8B
:1035B000FDF73AFE064B5B68DBB2103BDBB25BB259
:1035C0001846FFF7D3FF00F015FB00BF80BD00BF1A
:1035D00000ED00E080B483B000AF0346FB7197F9C3
:1035E0000730002B0BDBFB7903F01F02064997F92C
:1035F00007305B09012000FA02F241F8232000BFE6
:103600000C37BD4680BC704700E100E080B483B059
:1036100000AF0346FB7197F90730002B0CDBFB79F9
:1036200003F01F02074997F907305B09012000FAF0
:1036300002F2603341F8232000BF0C37BD4680BC46
:10364000704700BF00E100E080B483B000AF0346E4
:10365000FB7197F90730002B24DB154A97F90730E7
:103660005B09A03352F82310FB7903F01F030122FA
:1036700002FA03F3DA430E4897F907305B090A4070
:10368000A03340F823200A4A97F907305B09A0339A
:1036900052F82320FB7903F01F0322FA03F303F00F
:1036A000010300E0002318460C37BD4680BC70477C
:1036B00000E100E080B483B000AF03463960FB71E5
:1036C00097F90730002B0ADB3B68DAB20C4997F90F
:1036D00007305201D2B20B4483F800230AE03B6862
:1036E000DAB20849FB7903F00F03043B5201D2B26E
:1036F0000B441A7600BF0C37BD4680BC704700BF34
:1037000000E100E000ED00E080B400AF044B1B6876
:10371000034A23F00103136000BFBD4680BC70471D
:10372000D0ED00E080B584B000AF78607B681B68A6
:10373000184601F02FF8034683F00103DBB2002B9B
:1037400000D0FEE70023FB60786801F051F80346E3
:10375000002B02D0012B03D005E0064BFB6003E0F9
:10376000054BFB6000E0FEE7FB6818461037BD46DE
:1037700080BD00BF002584500028845080B500AF74
:1037800000216FF00800FFF795FF044B5B6A034AC6
:1037900043F4702353620023184680BD00ED00E01F
:1037A00080B483B000AF094BDB687B607B689BB261
:1037B0007B607A68064B13437B60044A7B68D36066
:1037C000002318460C37BD4680BC704700ED00E072
:1037D0000800FA0580B400AF0B4B0C4A1B68C2F816
:1037E0004435094B094ADB69C2F84C35074B0222C4
:1037F000C3F84025054B0222C3F84825002318468C
:10380000BD4680BC704700BF0080FF0000600050D4
:1038100080B582B000AF0023FB7109E0114AFB794B
:10382000A0334FF0FF3142F82310FB790133FB71D5
:10383000FB790F2BF2D900233B600BE00A4A3B686F
:1038400052F823301B0B5BB21846FFF7FDFE3B68B6
:1038500001333B603B68002BF0D00023184608374B
:10386000BD4680BD00E100E09C20002080B582B014
:1038700000AFFDF769FC00237B6014E00E4A7B6813
:1038800052F823301B0B5BB21846FFF7BFFE0A4A03
:103890007B6852F823301B0B5BB21846FFF79AFE89
:1038A0007B6801337B607B68002BE7D000231846E0
:1038B0000837BD4680BD00BF9C20002080B500AF0A
:1038C000FFF722FF034B1B68024A43F00203136019
:1038D00000BF80BDD0ED00E080B584B002AFFDF741
:1038E000D1FC00237B607B6843F004037B607B6832
:1038F00043F001037B60012300937B6801224FF6B4
:10390000FF710020FDF7F8FC00237B607B6843F02B
:1039100004037B607B6843F002037B607B6843F0B9
:1039200001037B60012300937B68012219494FF05A
:103930000050FDF70BFD00237B607B6843F0040320
:103940007B607B6843F002037B607B6843F001038C
:103950007B60114B5868104B9968012300937B687A
:103960000022FDF7C9FC012300937B6800220B496C
:103970000B48FDF7EBFC084BDA68074B1B69013B72
:1039800019461046FDF710FD002318460837BD46BE
:1039900080BD00BFFF7F002094490000FFFF07208B
:1039A0000080002080B582B000AF0023FB71F97960
:1039B00001230022034800F049FE00BF0837BD463E
:1039C00080BD00BF0030005080B584B000AF002340
:1039D000FB600AE01F4AFB6852F8233000211846BA
:1039E000FDF746FDFB680133FB60FB68292BF1D92D
:1039F000FFF7D8FF00233B6000237B600023BB6000
:103A00000EE0BB68D9B2BB689B0010333B4453F84F
:103A1000102C0123104800F043FEBB680133BB604B
:103A2000BB68012BEDD90321002000F093FE032198
:103A3000012000F08FFE094800F0EDFE0123002276
:103A40000021054800F056FE002318461037BD46F9
:103A500080BD00BFA8490000003000500010005099
:103A600080B586B000AF0346FB714FF0FF333B617A
:103A70000123FB60FEF7D8FDB86001237B6110E0F5
:103A80000C4A7B6952F83330BA689A4206D1FB7906
:103A90000F22934202D100233B6106E07B69013390
:103AA0007B617A69FB689A42EAD33B69184618370A
:103AB000BD4680BD504A000080B400AF034B0122D8
:103AC0001A6000BFBD4680BC704700BFBC29002003
:103AD00080B588B000AF78607B681B68FB777B6837
:103AE00004331B68BB617B6808331B68FB82214B76
:103AF0001B683B614FF0FF33FB603B695868B96955
:103B0000FA8A062300F0B8FCF860FB68002B04D0AA
:103B10007B686FF086021A6029E0174B1B68012B47
:103B200004D07B686FF086021A6020E0FB7F1846A5
:103B3000FFF796FF0346002B04D07B686FF08602E8
:103B40001A6014E0FB8A032B04D87B686FF08602AE
:103B50001A600CE0BB69BB60BB6842F216021A80B7
:103B6000BB6804225A807B6800221A6000BF20379D
:103B7000BD4680BDAC290020BC29002080B400AF28
:103B8000064BD3E90023064805498B4208BF824211
:103B900000D0FEE700BFBD4680BC7047F80B002098
:103BA000A5EDF5FE80B584B000AFF860B9607A602D
:103BB0003B60FB68002B03D0FB68032B0BD00EE0AF
:103BC000FEF768FDB860FFF7D9FF094BB9681846E2
:103BD00000F02EFE07E07868FFF77AFF03E07B68CD
:103BE0006FF083021A60BB6818461037BD4680BD6F
:103BF000F80B002080B500AFFEF746FA00BF80BD8D
:103C000080B485B000AF78607B68FB60FB6883F3AD
:103C10000A8800BF00BF1437BD4680BC704780B41F
:103C200083B000AFEFF3108372B67B607B681846F9
:103C30000C37BD4680BC704780B483B000AF78605D
:103C40007B6883F3108800BF0C37BD4680BC70478B
:103C500080B483B000AF786039607B68002B00D1FE
:103C6000FEE77B681B689B6803F48063002B03D02E
:103C7000B3F5806F09D011E07B681B68DB683A6898
:103C80009A420ED96FF0FA030FE07B681B68DB687D
:103C90003A689A4207D06FF0FA0306E06FF0FA0331
:103CA00003E000BF00E000BF002318460C37BD460C
:103CB00080BC704780B584B000AF7860786800F051
:103CC000AFFAF860F86800F0CCFA0346002B01D098
:103CD00000230DE0FEF7A8FCB860FB689B685B68FA
:103CE0001B685B68BA689A4201D0002300E0FB6859
:103CF00018461037BD4680BD80B584B000AF03467E
:103D0000FB71FB79002B03D000F030FAF86002E081
:103D1000FEF78AFCF860FB79FA68D20FD2B29342C0
:103D200001D0FFF767FFFB6818461037BD4680BD1E
:103D300080B485B000AF78600023FB6027E07A682C
:103D4000FB680A339B0013445B68002B1BD07B6825
:103D5000DA6FFB68DB0013441A687968FB68163376
:103D60009B000B445B689A4200D0FEE77B68DA6FE9
:103D7000FB68DB001A447968FB681A339B000B442C
:103D80005B68536000E000BFFB680133FB60FB68C9
:103D9000032BD4D900BF00BF1437BD4680BC704789
:103DA00080B58CB000AFF860B9607A603B600023EA
:103DB000BB62FB68002B02D0BB68002B01D1FFF770
:103DC00019FFFB681B687B627B6A9B699A007B6AB0
:103DD000134438333B627B6ADB691846FEF7B8FC54
:103DE000F8610023FB6272E0FA6A13469B001344F9
:103DF0009B001946FA6A13465B0013449B001A465F
:103E0000FB6913443A6A0A441A60FA6A13465B0073
:103E100013449B001A46FB691344FA685A60FA6A15
:103E200013465B0013449B001A46FB6913440022AF
:103E30009A60FA6A13469B0013449B001A463B6A39
:103E400013449B68BB61BB6903F40073002B26D04D
:103E50007B68002B05D03B68002B02D03B68802B91
:103E600001D0FFF7C7FEBB69DBB27B617B691F2B0B
:103E700006D87B699B007A6813441B68002B01D02D
:103E8000FFF7B8FEFA6A13465B0013449B0019461D
:103E90007B699B007A681344FA690A441A60FA6ADB
:103EA00013465B0013449B001A46FB691344BA682F
:103EB00052689A60FA6A13465B0013449B001A46E4
:103EC000FB691A44BB685A60FB6A0133FB627B6A78
:103ED000DB69FA6A9A4202D2FB69002B84D1BB6A81
:103EE00018463037BD4680BD80B483B000AF7860DF
:103EF00000BF0C37BD4680BC704780B483B000AFB4
:103F0000EFF3108372B67B607B6818460C37BD46B2
:103F100080BC704780B483B000AF78607B6883F367
:103F2000108800BF0C37BD4680BC704780B582B09A
:103F300000AF78607B6813F1810F03D07B6813F1C9
:103F4000820F09D1FEF78AFB034683F00103DBB23F
:103F5000002B01D0FFF74EFE00BF0837BD4680BDE5
:103F600080B586B000AF7860396000237B610023A4
:103F7000BB607868FFF79EFE38613B69002B01D17A
:103F8000FFF738FE3B699B68FB60FB68002B01D1A3
:103F9000FFF730FE3B69DB6813F1020F1ED0B3F16F
:103FA000FF3F1FD13B68002B02D17B687B612FE074
:103FB0003B6813F1820F06D16FF081037B613B698F
:103FC00002221A6024E03B6813F1830F03D16FF0E3
:103FD00082037B611CE0FFF70DFE19E03B690222C2
:103FE0001A6015E03B69DB68002B0FDB3B687B61E7
:103FF0003869FFF79DFEFB681B689B6803F400733C
:10400000002B05D03B6902221A6001E0FFF7F2FDA8
:104010007B6913F1810F05D13B695B69002B01DBE3
:10402000FFF7E8FDFFF769FF0346BB607969386970
:10403000FEF748FF7861BB681846FFF76BFF3B69E6
:104040001B68022B03D1386900F015F902E03B69C7
:1040500000221A607B6918461837BD4680BD80B5BE
:1040600000AFFEF711F86FF08303184680BD80B5EE
:1040700088B000AFF860B9607A603B60FEF7EEFA96
:104080000346FB77FB7F1846FFF736FEB86107F162
:104090001003BA69F9681846FEF72AFA78617B6955
:1040A000002B01D07B6919E038693B687A68B968F0
:1040B000FEF74AFC78617B69002B0AD0FB6803F0AD
:1040C0008043002B03D03B69184600F0D4F87B698D
:1040D00004E03B691846FEF7A7FE03461846203762
:1040E000BD4680BD80B400AF40F201131846BD4606
:1040F00080BC704780B584B000AF7860FEF7AEFA40
:104100000346FB737868FEF777F9B860BB68002B4D
:1041100001D100230DE0FB7B1A46B9687868FEF7F1
:104120009BF90346002B01D0002302E0BB681B680B
:10413000DB6818461037BD4680BD80B485B000AF3F
:10414000786039607B68BB60BB6883F3098800BF17
:104150003B68FB60FB6883F30B8800BFBFF36F8F86
:1041600000BF00BF1437BD4680BC704780B582B029
:1041700000AF4FF0FF337B603B4619467868FEF78F
:1041800077FF0346002B01D0002300E03B68184670
:104190000837BD4680BD80B483B000AFEFF30B831A
:1041A0007B607B6818460C37BD4680BC704780B486
:1041B00085B000AF78607B68FB60FB6883F30B8899
:1041C00000BF00BF1437BD4680BC704780B582B0C9
:1041D00000AFFFF7E0FF78607B6880331846FFF799
:1041E000E6FF7B6818460837BD4680BD80B582B0C3
:1041F00000AFFFF7D0FF78607B68803B1846FFF781
:10420000D6FF00BF0837BD4680BD80B483B000AF85
:1042100078604FF4805318460C37BD4680BC704719
:1042200080B584B000AF78607B68B3F5805F01D063
:10423000002305E0FFF7AFFF0346803BFB60FB6810
:1042400018461037BD4680BD80B400AF00BFBD46E4
:1042500080BC704780B500AFFFF7B8FF0346184633
:1042600080BD80B483B000AF7860002318460C375F
:10427000BD4680BC704780B582B000AF7860FFF764
:10428000B5FF00BF0837BD4680BD80B400AF00BF9A
:10429000BD4680BC704780B582B000AF7860FFF744
:1042A0000DFBFFF719FB0346002B02D043F6DA3370
:1042B00013E0FFF789FB0346002B02D043F6DA3305
:1042C0000BE0FFF791F80346002B02D043F6DA33F8
:1042D00003E07B6802221A60002318460837BD46B7
:1042E00080BD90B591B000AFF860B9607A60FB68AE
:1042F0007B627B6A43E800F3BB61BB693B62FA689F
:10430000BB681344013BBB62BB6A43E800F37B61BB
:104310007B69FB6197F82330BB63FB7F7B63FB68A2
:104320003B63FDF723FE0246BB6B93424BD3FDF785
:1043300024FE02467B6B934245D8B86BFDF709FE1D
:1043400002463B6BD31A0133FB623B6B7A68F96A16
:10435000184602F06BFD0346002B01D1002387E0D5
:10436000BB6B0133FB6315E0FB6B1846FDF7E6FD05
:1043700038633C6BFDF708FE03467A681946204611
:1043800002F054FD0346002B01D1002370E0FB6BCB
:104390000133FB63FB6B7A6B9A42E5D8786BFDF7D0
:1043A000CDFD3863FA68BB681A443B6BD31AFB62D5
:1043B0003B6B7A68F96A184602F038FD0346002B19
:1043C00055D1002354E0FDF704FE0246BB6B934237
:1043D0004BD3FDF705FE02467B6B934245D8B86B85
:1043E000FDF7E8FD02463B6BD31A0133FB623B6BE2
:1043F0007A68F96A184602F019FD0346002B01D1CC
:10440000002335E0BB6B0133FB6315E0FB6B184603
:10441000FDF7C2FD38633C6BFDF7E9FD03467A68A2
:104420001946204602F002FD0346002B01D100236D
:104430001EE0FB6B0133FB63FB6B7A6B9A42E5D8A2
:10444000786BFDF7A9FD3863FA68BB681A443B6BCB
:10445000D31AFB623B6B7A68F96A184602F0E6FCF5
:104460000346002B03D1002302E0002300E00123D8
:1044700018464437BD4690BD80B58EB000AFF86099
:10448000B9607A603B6000237B637B68002B01D1BD
:1044900000238EE0BB68002B02D14CF2DA2388E0C7
:1044A0003B6803F00603062B04D17B6B43F001034A
:1044B0007B630CE03B6803F00203002B04D07B6BB2
:1044C00043F008037B6302E04CF2DA2371E03B68BF
:1044D00003F02003002B03D07B6B43F012037B63BC
:1044E000FB6803F00203002B03D17B6B43F0040352
:1044F0007B63FB6803F00103002B18D0EFF3948378
:10450000FB62FB6A3B6297F8203003F00103DBB2E9
:10451000002B04D07B6B43F004037B6303E07B6BD5
:1045200023F004037B637B6B43F012037B63BB6864
:104530007A6B7968184602F079FC0346002B14BFA9
:1045400001230023DBB23B633B6B002B2AD1BB680A
:104550007B627B6A43E800F37B617B69FB61BA683D
:104560007B681344013BBB62BB6A43E800F33B61D9
:104570003B69BB61BB7F23F07F03DBB2002B11D013
:10458000BB7E23F07F03DBB2002B0BD0FA7FFB7ED8
:104590009A4207D0BB687A6B79681846FFF7A1FE8C
:1045A00003463B633B6B002B01D0002301E06FF01F
:1045B0007F0318463837BD4680BD80B582B000AF56
:1045C00043F65C237B60FFF7D9F878607B68002BAB
:1045D00002D043F6DA3326E0FFF7E2F878607B6832
:1045E000002B02D043F6DA331DE0FFF7F3F87860D2
:1045F0007B68002B02D043F6DA3314E062B600BFCA
:10460000FFF706F978607B68002B02D043F6DA33B7
:1046100009E0FFF72BF978607B68002B02D043F6A6
:10462000DA3300E0002318460837BD4680BDEFF3BB
:104630000880EFF309812DE9F00F6B467246FCF715
:10464000D3FC08B0FEF7B0FFFEE700BF80B485B032
:1046500000AFF8607A601A460B46FB721346BB72D5
:10466000FB7AFA689033DB0013445B6803F00103C4
:10467000002B00D0FEE7FA7AFB689032796843F8A5
:104680003210BB7A002B06D0FB7AFA689033DB003D
:10469000134401225A6000BF1437BD4680BC7047E6
:1046A00080B485B000AFF8607A601A460B46FB72A2
:1046B0001346BB72FB7AFA689833DB0013445B68DD
:1046C00003F00103002B00D0FEE7FA7AFB68983272
:1046D000796843F83210BB7A002B06D0FB7AFA686F
:1046E0009833DB00134401225A6000BF1437BD46E3
:1046F00080BC704780B485B000AFF860B9601146E7
:104700001A460B46FB711346BB71FB68BA6802F58B
:10471000887253F8223003F48073002B00D0FEE738
:10472000FB79002B01D0102200E00022BB79002B86
:1047300002D04FF4807300E0002342EA0301FB68DB
:10474000BA6802F5887243F8221000BF1437BD46DC
:1047500080BC704780B584B000AF78600B46FB70BA
:104760003B1D1846FEF7DEFFF8607A68FB68803272
:1047700053F8223023F0E043BB60FB7819077A68D6
:10478000BB681943FB68803243F8221000BF103722
:10479000BD4680BD80B485B000AF78607B685B09A2
:1047A000BB600023FB60BB68002B03D0BB68012B00
:1047B00004D007E04FF0FF33FB6005E04FF6FF73D6
:1047C000FB6001E000230EE07B6803F01F037B60C9
:1047D000FA687B6822FA03F303F00103002B14BF8D
:1047E00001230023DBB218461437BD4680BC704756
:1047F00080B485B000AF78607B681B68FB60FB68A5
:1048000003F01F027B681A60FB685B0918461437C7
:10481000BD4680BC704780B483B000AF78607B68D1
:104820000122C3F8002500BF0C37BD4680BC70478D
:1048300004460D46A546284700BF83F308889646E0
:104840000222EFF31483134383F31488BFF36F8FB3
:10485000084700BF80B483B000AF78607B689B09D5
:1048600003F00103002B14BF01230023DBB2184621
:104870000C37BD4680BC704780B483B000AF786011
:104880007B685B0903F00103002B14BF01230023A5
:10489000DBB218460C37BD4680BC704780B586B089
:1048A00000AFF860B9607A602023FB75FB683B615C
:1048B000BB6803F00803002B06D0BB6803F00403B9
:1048C000002B01D07B683B61B868FFF7C3FF03464C
:1048D000002B12D0B868FFF7CFFF034683F0010327
:1048E000DBB2002B02D03B6928333B613B691833B4
:1048F0001B68023B1B78FB7501E0FFF77BF9BB6887
:1049000003F00803002B0CBF01230023DAB2FB7D68
:1049100003F04003002B14BF01230023DBB25340FC
:10492000DBB2002B01D0FFF765F9FB7D03F0A0039C
:10493000002B07D1F87DFB683A69B968FFF732F9B7
:10494000034604E03B696FF083021A60BB681846B7
:104950001837BD4680BD00000002FF002C0000009B
:104960005004FF00100000003001FF0008000000AC
:10497000200CFF00040000000081FF000003000085
:10498000FFFFFFFF0000000000000000000000002B
:10499000A02000200000010000000100FFFF0F0028
:1049A000007C00000080000000000050004000502B
:1049B00000500050008000500090005000B00050A7
:1049C00000C0005000A0005000E0005000F0005077
:1049D00000000150001001500040015000500150F3
:1049E00000700150008001500090015000A0015063
:1049F00000B0015000C0015000D0015000E0015053
:104A000000F001500000025000100250002002503F
:104A100000300250004002500060025000800250FE
:104A200000A0025000B0025000D00250000003501D
:104A300000300350004003500060035000700350EA
:104A40000090035000258450002884500010085026
:084A5000000000000F0000004F
:104A60000348044B834202D0034B03B118477047FD
:104A70008421002084210020000000000548064B0E
:104A80001B1AD90F01EBA301491002D0034B03B14C
:104A90001847704784210020842100200000000076
:104AA00010B5064C237843B9FFF7DAFF044B13B176
:104AB0000448AFF300800123237010BD802800203C
:104AC000000000001474000008B5044B1BB1044939
:104AD0000448AFF30080BDE80840CFE700000000C5
:104AE0008428002014740000A3F5803A704700BFAA
:104AF000174B002B08BF134B9D46FFF7F5FF002116
:104B00008B460F461348144A121A02F0A9FA0E4BAC
:104B1000002B00D098470D4B002B00D09847002069
:104B2000002104000D000D48002802D00C48AFF30E
:104B3000008002F057F920002900FDF73FFC02F049
:104B40003DF900BF00000800000000000000000068
:104B5000F80B0020842100202C38002000000000E9
:104B600000000000009A084B9A4208D110B502F0EC
:104B7000BAFA02F0C1F906BC96460C46744702F038
:104B80001FFB00BF18460000A5EDF5FE009A084B7C
:104B90009A4208D110B502F0BDFA02F0ADF906BC98
:104BA00096460C46744702F00BFB00BF1846000007
:104BB000A5EDF5FE0CB4029A094B9A420CD14FF0C8
:104BC000004319430CBC10B500F026F802F094F92C
:104BD00006BC96460C46744702F0F2FA00BF18462F
:104BE000A5EDF5FE009A054B9A4202D104490868EA
:104BF000744702F0E5FA00BF18460000A5EDF5FE87
:104C000070720000009A034B9A4200D1744702F080
:104C1000D7FA00BFA5EDF5FE80B58AB000AFF86009
:104C2000B9607A603B60EFF30583BB61BB697B6170
:104C3000BB8AC3F308039BB2002B01D0FEF7DAFF57
:104C4000104B1B683B623B687A68B968F868FFF7ED
:104C50000EFA78620B4B1B68FB613A6AFB699A4259
:104C600008D0FB699B691B69796A1846FFF778F9D8
:104C7000786202E0786AFFF759F97B6A18462837AC
:104C8000BD4680BDAC2900200F4B02689A4206D178
:104C9000C269A3F11023A3F1EF139A4201D00120BE
:104CA00070478368012BFAD8C36813B10269934235
:104CB000F5D043692BB18069C01AB0FA80F0400981
:104CC00070471846704700BF55AA00FFF8B5164B4D
:104CD000996829B10846FFF7D7FF08B9CB680BB12F
:104CE0000120F8BD0B69002BFBD0104D104E1A6847
:104CF000AA42F5D1DA69B242F2D19A68012AEFD814
:104D0000DC68002CECD01A699442E9D05F691FB1CD
:104D1000D3F818C06745E3D08C42E1D11946002A88
:104D2000DFD01346E3E700BFC029002055AA00FFEB
:104D3000669911EE002865D070B5374D2B68002BB1
:104D400054D0AA68002A51D08342014661D86A68CB
:104D5000134498425DD2A0F120063046FFF794FF3D
:104D6000002856D151F8183C012B52D151F8144C5F
:104D700041F8180C51F8100C002C38D0A368002B07
:104D800035D151F81C2C63682032134420616360D4
:104D900000B1C46020220021304602F061F9206990
:104DA000F0B18368E3B92646426873681344026928
:104DB000203373603261D6E9051331B38B6103B1DF
:104DC0005961416983697161B361E1B18E61B36910
:104DD00003B15E6102B1D6602022002102F040F9E9
:104DE0002B699B0702D5FFF771FF90B970BD10B119
:104DF0008368002BD8D0EB6841F8083C03B15E61B2
:104E0000EE60EDE77047EE60E2E7002BD9D0EB6093
:104E1000D6E7012001F0D2FFC02900202DE9F84F8C
:104E20003E4D2B68EC68002B40D0AB68002B3DD08A
:104E300000283BD0002939D001FB00F6B6FBF0F08A
:104E4000884233D1301D31D8B10733D026F0030169
:104E5000043114B92BE0A4694CB363688B42FAD3D4
:104E6000D4F808C0BCF1000F55D1A0695B1A232B00
:104E70008146676920D80123A360002F47D0B8611D
:104E8000A06900B1476100232A696361D207A36169
:104E900003D5FFF71BFF00283DD120343246002107
:104EA000204602F0DDF82046BDE8F88F00242046B9
:104EB000BDE8F88F3146CCE7D4F8108001F1200E20
:104EC000DFF85CB0DFF85CA004EB0E02203BC2E927
:104ED000013CC2E9034844F80EB0C2F81CA0B8F186
:104EE000000F01D0C8F80C20C2F81890576187B1A4
:104EF000BA61906900B14261002361602969226151
:104F00000122C4E90533CB07A260C6D5C1E7E8603A
:104F1000B7E7EA60EEE7012001F050FFC02900206A
:104F200055AA00FF669911EE38B50D4614220021EE
:104F30000446114802F094F81049114800F030F886
:104F4000232D18D914F0030304D0043DC3F1040247
:104F50001D4414442A460021204602F081F8064BE5
:104F6000084A0948A5F12001C3E901541C60E06129
:104F7000C4E90021DC6038BDC0290020354D0000A7
:104F80001D4E000055AA00FF669911EE00207047E3
:104F9000704700BF014B1B68184700BFA8200020C6
:104FA00010B40446034A044B00201460196010BC7E
:104FB000704700BFAC200020A820002039B1044B6E
:104FC0000A4610B500211B680446984710BD70477B
:104FD000B020002010B5044628B121B1044B0A4688
:104FE0001B68002198472046BDE81040FFF7D2BF5C
:104FF000B020002038B50446406A10B1A16AFFF71E
:10500000E9FF0022237FC4E90922012B0FD0023BD4
:10501000012B13D8236A012B0CBF15466FF09605A0
:105020002C220021204602F01BF8284638BD236AB6
:10503000002B0CBF00256FF09605F1E76FF0960589
:10504000EEE700BF074B5A78022A02D06FF08800C3
:1050500070471A78072AF9D10A460146181D00F050
:1050600097B800BFD429002010B5134C23785907F6
:1050700044BF03F0FB0323709A0716D4637883B907
:10508000002304210D486370FFF798FF2378DB07A6
:1050900000D410BD00F078F8237823F001032370CA
:1050A00010BD064800F086F8EAE700F053F82378D0
:1050B00023F002032370E1E7D4290020D82900203F
:1050C00038B51E4C62782378022A1AD0DD071CD529
:1050D000980725D562783AB15A075CBF43F00403BC
:1050E00023700025284638BDD907F5D5144800F0AF
:1050F0004DF8022305466370F0B1FFF7B5FF28466F
:1051000038BD072BEDD0DD07E2D400F03BF8237863
:10511000054643F0010323700028EED19807D9D447
:1051200000F010F82378054643F0020323700028AE
:10513000D0D0FFF799FFE2E72378CDE7D42900200C
:10514000D82900200122024B002083F880257047D7
:10515000DC2900202DE9F041DFF8248001274446B6
:10516000032608F5B0652762267720462C34FFF722
:1051700041FFAC42F7D1002388F88035BDE8F081CB
:10518000DC29002000207047704700BF00207047D6
:1051900010B582B0002001AB144600F05FF830B9C2
:1051A000019BA34218BF6FF0930002B010BD6FF0D7
:1051B0009200FAE70020704710B50C4C236813B139
:1051C0000B4B1B682BB900F093FC30B90122084B44
:1051D0001A6001232360002010BD0138072801D97F
:1051E000044810BD044B53F8200010BD782F002058
:1051F000742F0020FE8FFFFF98720000144B2DE9E2
:10520000F043002814BF04461C46124F236883B0A5
:10521000BB4219D016460D4620464FF4147104F1D6
:10522000040900F047F804F58E78484600F0CEF8FF
:10523000404600F019FA2B464A4640460649009679
:1052400000F034FB08B92760002003B0BDE8F0830C
:105250007C2F0020A5BCC95A5154000070B50D4CDC
:105260001D46002814BF064626460B4B306882B008
:1052700098420DD106F58E700026334600961446EE
:1052800000F03EFB002818BF34462C6002B070BD11
:105290000248FBE77C2F0020A5BCC95AE88FFFFF1E
:1052A00038B131B1002201440346013081421A7005
:1052B000FAD1704738B131B10022014403460130C0
:1052C00088421A70FAD170472DE9F043202B1D4611
:1052D0000646884691468BB026D8DBB202AF8DF8E1
:1052E0000480B04658F8041B8DF8053021B94046BB
:1052F00001F026F9044640B90123022240463360FA
:1053000001A901F031F9044638B138462021FFF7F0
:10531000D1FF20460BB0BDE8F0832A4649464046FF
:1053200001F022F90446F0E702AF194610460023C7
:105330003A4601F09FFA04460028E6D12023B946F8
:105340001D46CCE72DE9F041D0F8F830A6B0002B8F
:10535000D8BF02AE31DD05460027D0F80C4102AEC1
:10536000A4F101089022D5F8FC403146D0F80001A4
:1053700001AB0197B8FA88F8A0474FEA58180446DD
:1053800020B9019B53B9B8F1000F16D030469021D7
:10539000FFF790FF204626B0BDE8F0810146324677
:1053A0002846FFF791FF58B9D5F80431019A134404
:1053B000C5F80431B8F1000FE8D16FF03C04E5E71F
:1053C0000446204626B0BDE8F08100BF70B5002538
:1053D0000446142204F588762946C0F8F850FC30BB
:1053E00001F03EFE08222946304601F039FE144BFA
:1053F00030461B689847204640F8045B01F086F869
:10540000104B30461B689847C8B9D4F8F830AB4207
:105410000FDC03EB830204EB82022021C2F80001BF
:105420000120C2E9421008490133C2F8FC10C4F857
:10543000F830064B3046BDE870401B68184770BD19
:10544000D4200020D020002009640000CC200020BF
:105450002DE9F047202A88B07AD83F4B00F58879AB
:1054600004461B6848461746884698470546F8B9DB
:1054700040F20116D4F8F830002B65D02046FFF733
:1054800061FF054638B9D4F8F830002B14DC013E32
:10549000F2D16FF03B056E4620213046FFF70AFF40
:1054A0002E4B48461B689847002818BF6FF01D0513
:1054B000284608B0BDE8F087D4E94132934203D3CF
:1054C000D4F80C21012A02D0013ED7D1E1E71F2BED
:1054D000FAD96E4601462022304604F1040A01F052
:1054E000BFFD3146504601F069F805460028D3D18A
:1054F000504601F01FF8504601F008F82946504682
:1055000001F01EF805460028C6D15046202231463B
:1055100001F02AF805460028BED103463246202174
:10552000304601F0A7F905460028B5D1D4F8F83087
:105530003A46002BC8BF002340463146C8BFC4F8D6
:10554000043101F047FDA7E76FF03F056E46A3E782
:105550006FF03B05ACE700BFD0200020CC2000203E
:1055600070B590B000287AD03E4C0D4640223621CE
:105570000646204601F074FD40225C21A01801F08F
:105580006FFD2B1DA34203D904F144039D4252D366
:105590002B682268534023602B68226C534023649D
:1055A0006B686268534063606B68626C534063640D
:1055B000AB68A2685340A360AB68A26C5340A3647D
:1055C000EB68E2685340E360EB68E26C5340E364ED
:1055D0002B69226953402361226D2B695340236557
:1055E00062696B69534063616B69626D53406365C7
:1055F000AB69A2695340A361AB69A26D5340A36537
:10560000EB69E2695340E361EB69E26D5340E365A6
:105610000021304600F094FF044628B9402230466D
:10562000104900F0A1FF044640216846FFF742FE02
:10563000204610B070BD631E04F13F01013D1F34D0
:1056400015F8010F13F8012F42401A7011F8012FBD
:105650002878A34282EA00020A70F1D1D8E76FF0FD
:105660007304E5E7CC31002010B54FF49A720021A5
:10567000044601F0F5FC42F21072044BC4F82021FC
:1056800004F596701B68BDE810401847D420002030
:105690002DE9F04F04468846914695B0002900F068
:1056A000A780002A0CBF0126022600238DF80C30AB
:1056B000002C00F09F80DFF844A104AF0AF1400BFA
:1056C0000021204600F03CFF034648B13846202127
:1056D0000193FFF7EFFD019B184615B0BDE8F08F71
:1056E00040225146204600F03FFF03460028EDD1FE
:1056F00004F1F40520222946204600F035FF034638
:105700000028E3D10122204603A900F02DFF034623
:105710000028DBD1022E62D020460CA900F04EFFFB
:1057200003460028D2D10146204600F009FF034677
:105730000028CBD140225946204600F015FF0346F1
:105740000028C3D1202220460CA900F00DFF0346FB
:105750000028BBD13946204600F030FF0346002820
:10576000B4D139462046FFF7FBFE03460028ADD1F1
:1057700020222946204600F0F7FE03460028A5D146
:1057800020460CA900F01AFF034600289ED10146CE
:10579000204600F0D5FE0346002897D14022594606
:1057A000204600F0E1FE034600288FD1202220464B
:1057B0000CA900F0D9FE0346002887D129462046CF
:1057C00000F0FCFE0346002880D19DF80C20013239
:1057D000D2B2B2428DF80C20FFF472AF76E74A469F
:1057E0004146204600F0C0FE0346002894D06DE7F5
:1057F00001265AE76FF0730304AF67E7CC3100204E
:105800002DE9F0410446884615461F46D0F8180198
:10581000E0B013B100EB40004008B5F5807F3ED802
:105820002844B0F5C07F3AD84FF4C07200216846D2
:1058300001F016FC6946D4F82431D4F81821D4F8C4
:105840002801984770BBD4F8186157B1D4E94930A2
:1058500072080DEB0601984720BBD4F8183106EB0F
:105860005306B8F1000F00D08DB932466946204684
:10587000FFF70EFF054610B90123C4F81431314675
:105880006846FFF717FD284660B0BDE8F0810DEBD4
:10589000060041462A462E4401F09CFBE5E76FF0E6
:1058A0000405F0E76FF00805EDE700BF2DE9F047CC
:1058B000044604F1F4050F4691461E46DDF82080AB
:1058C00000F024FE29462046FFF74AFE08B1BDE855
:1058D000F08728462022012101F0C2FBD4F81831BC
:1058E000C4F82471C4F8289113B92023C4F81831DE
:1058F000424631462046BDE8F0470123FFF780BF0E
:10590000B2F5806F00F295802DE9F04F89B09A468C
:10591000129BB3F5807F00F29080D0F824311646B8
:1059200004460F464BB3D0F81C31012B05D0D0F8FC
:105930001421D0F820319A421FDD51460023204621
:10594000129AFFF75DFF014698B900231293002ECB
:105950005ED0DFF8EC9009F1400B0021204600F00A
:10596000EFFD202E3546014628BF202504F1F4081E
:1059700090B1084609B0BDE8F08FBAF1000FE6D04B
:10598000129B002BE1D051461A462046FFF780FEBD
:1059900001460028DBD0ECE749464022204600F0D3
:1059A000E3FD01460028E4D141462022204600F0D4
:1059B000DBFD01460028DCD16946204600F0FEFDF3
:1059C00001460028D5D1204600F0BAFD0146002846
:1059D000CFD159464022204600F0C6FD014600289E
:1059E000C7D169462022204600F0BEFD01460028AE
:1059F000BFD14146204600F0E1FD01460028B8D164
:105A000038462A46414601F0E5FA761B2F44A4D1D8
:105A100051462046129AFFF73BFE01460028A8D1C6
:105A20000846D4F814310133C4F8143109B0BDE884
:105A3000F08F6FF00201084670476FF0040198E79D
:105A4000CC310020002130B58DB0282202A8019170
:105A500001F006FB02A800F035FF044610B1204615
:105A60000DB030BD1B4D4FF0FF31286800F032F90A
:105A700060BB194BD3F8340E10F0010017D100F0C1
:105A800059F9F8B9154A02A901A800F0AFFC04467B
:105A9000012000F04FF988B9286800F023F90028A8
:105AA000DDD00F4800F0ACF920460DB030BD2868BD
:105AB000052400F017F90028D1D0F2E7094800F0DA
:105AC0009FF9E9E7084800F09BF9DBE7074800F099
:105AD00097F9CEE7B8200020006084504C320020B7
:105AE00010730000F0720000D0720000B872000065
